{
  "contractName": "AuctionToken",
  "abi": [
    {
      "constant": true,
      "inputs": [],
      "name": "getBuyPrice",
      "outputs": [
        {
          "name": "",
          "type": "uint256"
        }
      ],
      "payable": false,
      "stateMutability": "view",
      "type": "function"
    },
    {
      "constant": true,
      "inputs": [],
      "name": "creationDate",
      "outputs": [
        {
          "name": "",
          "type": "uint256"
        }
      ],
      "payable": false,
      "stateMutability": "view",
      "type": "function"
    },
    {
      "constant": true,
      "inputs": [],
      "name": "name",
      "outputs": [
        {
          "name": "",
          "type": "string"
        }
      ],
      "payable": false,
      "stateMutability": "view",
      "type": "function"
    },
    {
      "constant": false,
      "inputs": [
        {
          "name": "_spender",
          "type": "address"
        },
        {
          "name": "_value",
          "type": "uint256"
        }
      ],
      "name": "approve",
      "outputs": [
        {
          "name": "",
          "type": "bool"
        }
      ],
      "payable": false,
      "stateMutability": "nonpayable",
      "type": "function"
    },
    {
      "constant": true,
      "inputs": [],
      "name": "totalSupply",
      "outputs": [
        {
          "name": "",
          "type": "uint256"
        }
      ],
      "payable": false,
      "stateMutability": "view",
      "type": "function"
    },
    {
      "constant": false,
      "inputs": [
        {
          "name": "_from",
          "type": "address"
        },
        {
          "name": "_to",
          "type": "address"
        },
        {
          "name": "_value",
          "type": "uint256"
        }
      ],
      "name": "transferFrom",
      "outputs": [
        {
          "name": "",
          "type": "bool"
        }
      ],
      "payable": false,
      "stateMutability": "nonpayable",
      "type": "function"
    },
    {
      "constant": true,
      "inputs": [],
      "name": "decimals",
      "outputs": [
        {
          "name": "",
          "type": "uint8"
        }
      ],
      "payable": false,
      "stateMutability": "view",
      "type": "function"
    },
    {
      "constant": true,
      "inputs": [],
      "name": "sellPrice",
      "outputs": [
        {
          "name": "",
          "type": "uint256"
        }
      ],
      "payable": false,
      "stateMutability": "view",
      "type": "function"
    },
    {
      "constant": true,
      "inputs": [],
      "name": "buyPriceEnd",
      "outputs": [
        {
          "name": "",
          "type": "uint256"
        }
      ],
      "payable": false,
      "stateMutability": "view",
      "type": "function"
    },
    {
      "constant": false,
      "inputs": [
        {
          "name": "_spender",
          "type": "address"
        },
        {
          "name": "_subtractedValue",
          "type": "uint256"
        }
      ],
      "name": "decreaseApproval",
      "outputs": [
        {
          "name": "success",
          "type": "bool"
        }
      ],
      "payable": false,
      "stateMutability": "nonpayable",
      "type": "function"
    },
    {
      "constant": true,
      "inputs": [
        {
          "name": "_owner",
          "type": "address"
        }
      ],
      "name": "balanceOf",
      "outputs": [
        {
          "name": "balance",
          "type": "uint256"
        }
      ],
      "payable": false,
      "stateMutability": "view",
      "type": "function"
    },
    {
      "constant": true,
      "inputs": [],
      "name": "owner",
      "outputs": [
        {
          "name": "",
          "type": "address"
        }
      ],
      "payable": false,
      "stateMutability": "view",
      "type": "function"
    },
    {
      "constant": true,
      "inputs": [],
      "name": "buyPriceStart",
      "outputs": [
        {
          "name": "",
          "type": "uint256"
        }
      ],
      "payable": false,
      "stateMutability": "view",
      "type": "function"
    },
    {
      "constant": true,
      "inputs": [],
      "name": "symbol",
      "outputs": [
        {
          "name": "",
          "type": "string"
        }
      ],
      "payable": false,
      "stateMutability": "view",
      "type": "function"
    },
    {
      "constant": false,
      "inputs": [],
      "name": "buy",
      "outputs": [
        {
          "name": "amount",
          "type": "uint256"
        }
      ],
      "payable": true,
      "stateMutability": "payable",
      "type": "function"
    },
    {
      "constant": false,
      "inputs": [
        {
          "name": "_to",
          "type": "address"
        },
        {
          "name": "_value",
          "type": "uint256"
        }
      ],
      "name": "transfer",
      "outputs": [
        {
          "name": "",
          "type": "bool"
        }
      ],
      "payable": false,
      "stateMutability": "nonpayable",
      "type": "function"
    },
    {
      "constant": false,
      "inputs": [
        {
          "name": "_spender",
          "type": "address"
        },
        {
          "name": "_addedValue",
          "type": "uint256"
        }
      ],
      "name": "increaseApproval",
      "outputs": [
        {
          "name": "success",
          "type": "bool"
        }
      ],
      "payable": false,
      "stateMutability": "nonpayable",
      "type": "function"
    },
    {
      "constant": true,
      "inputs": [
        {
          "name": "_owner",
          "type": "address"
        },
        {
          "name": "_spender",
          "type": "address"
        }
      ],
      "name": "allowance",
      "outputs": [
        {
          "name": "remaining",
          "type": "uint256"
        }
      ],
      "payable": false,
      "stateMutability": "view",
      "type": "function"
    },
    {
      "constant": true,
      "inputs": [],
      "name": "getDetails",
      "outputs": [
        {
          "name": "_owner",
          "type": "address"
        },
        {
          "name": "_name",
          "type": "string"
        },
        {
          "name": "_symbol",
          "type": "string"
        },
        {
          "name": "_totalSupply",
          "type": "uint256"
        },
        {
          "name": "_creationDate",
          "type": "uint256"
        },
        {
          "name": "_buyPriceStart",
          "type": "uint256"
        },
        {
          "name": "_buyPriceEnd",
          "type": "uint256"
        },
        {
          "name": "_sellPrice",
          "type": "uint256"
        },
        {
          "name": "_saleStart",
          "type": "uint256"
        },
        {
          "name": "_saleEnd",
          "type": "uint256"
        }
      ],
      "payable": false,
      "stateMutability": "view",
      "type": "function"
    },
    {
      "inputs": [
        {
          "name": "_totalSupply",
          "type": "uint256"
        },
        {
          "name": "_owner",
          "type": "address"
        },
        {
          "name": "_symbol",
          "type": "string"
        },
        {
          "name": "_name",
          "type": "string"
        },
        {
          "name": "_buyPriceStart",
          "type": "uint256"
        },
        {
          "name": "_buyPriceEnd",
          "type": "uint256"
        },
        {
          "name": "_sellPrice",
          "type": "uint256"
        },
        {
          "name": "_saleStart",
          "type": "uint256"
        },
        {
          "name": "_saleEnd",
          "type": "uint256"
        }
      ],
      "payable": false,
      "stateMutability": "nonpayable",
      "type": "constructor"
    },
    {
      "anonymous": false,
      "inputs": [
        {
          "indexed": true,
          "name": "owner",
          "type": "address"
        },
        {
          "indexed": true,
          "name": "spender",
          "type": "address"
        },
        {
          "indexed": false,
          "name": "value",
          "type": "uint256"
        }
      ],
      "name": "Approval",
      "type": "event"
    },
    {
      "anonymous": false,
      "inputs": [
        {
          "indexed": true,
          "name": "from",
          "type": "address"
        },
        {
          "indexed": true,
          "name": "to",
          "type": "address"
        },
        {
          "indexed": false,
          "name": "value",
          "type": "uint256"
        }
      ],
      "name": "Transfer",
      "type": "event"
    }
  ],
  "bytecode": "0x60606040526000600655600060075560006008556020604051908101604052806000815250600990805190602001906200003b92919062000214565b506020604051908101604052806000815250600a90805190602001906200006492919062000214565b506000600c5534156200007657600080fd5b60405162001ba738038062001ba7833981016040528080519060200190919080519060200190919080518201919060200180518201919060200180519060200190919080519060200190919080519060200190919080519060200190919080519060200190919050508181111515620000ee57600080fd5b84600381905550836004819055508260058190555080600781905550816006819055506006546007540360088190555087600d60006101000a81548173ffffffffffffffffffffffffffffffffffffffff021916908373ffffffffffffffffffffffffffffffffffffffff16021790555088600c819055508860016000600d60009054906101000a900473ffffffffffffffffffffffffffffffffffffffff1673ffffffffffffffffffffffffffffffffffffffff1673ffffffffffffffffffffffffffffffffffffffff168152602001908152602001600020819055508660099080519060200190620001e492919062000214565b5085600a9080519060200190620001fd92919062000214565b5042600b81905550505050505050505050620002c3565b828054600181600116156101000203166002900490600052602060002090601f016020900481019282601f106200025757805160ff191683800117855562000288565b8280016001018555821562000288579182015b82811115620002875782518255916020019190600101906200026a565b5b5090506200029791906200029b565b5090565b620002c091905b80821115620002bc576000816000905550600101620002a2565b5090565b90565b6118d480620002d36000396000f300606060405260043610610107576000357c0100000000000000000000000000000000000000000000000000000000900463ffffffff168063018a25e81461010c57806305b344101461013557806306fdde031461015e578063095ea7b3146101ec57806318160ddd1461024657806323b872dd1461026f578063313ce567146102e85780634b750334146103175780634fa9e09714610340578063661884631461036957806370a08231146103c35780638da5cb5b14610410578063954746fa1461046557806395d89b411461048e578063a6f2ae3a1461051c578063a9059cbb1461053a578063d73dd62314610594578063dd62ed3e146105ee578063fbbf93a01461065a575b600080fd5b341561011757600080fd5b61011f6107b8565b6040518082815260200191505060405180910390f35b341561014057600080fd5b61014861083c565b6040518082815260200191505060405180910390f35b341561016957600080fd5b610171610842565b6040518080602001828103825283818151815260200191508051906020019080838360005b838110156101b1578082015181840152602081019050610196565b50505050905090810190601f1680156101de5780820380516001836020036101000a031916815260200191505b509250505060405180910390f35b34156101f757600080fd5b61022c600480803573ffffffffffffffffffffffffffffffffffffffff169060200190919080359060200190919050506108e0565b604051808215151515815260200191505060405180910390f35b341561025157600080fd5b6102596109d2565b6040518082815260200191505060405180910390f35b341561027a57600080fd5b6102ce600480803573ffffffffffffffffffffffffffffffffffffffff1690602001909190803573ffffffffffffffffffffffffffffffffffffffff169060200190919080359060200190919050506109d8565b604051808215151515815260200191505060405180910390f35b34156102f357600080fd5b6102fb610cc4565b604051808260ff1660ff16815260200191505060405180910390f35b341561032257600080fd5b61032a610cc9565b6040518082815260200191505060405180910390f35b341561034b57600080fd5b610353610ccf565b6040518082815260200191505060405180910390f35b341561037457600080fd5b6103a9600480803573ffffffffffffffffffffffffffffffffffffffff16906020019091908035906020019091905050610cd5565b604051808215151515815260200191505060405180910390f35b34156103ce57600080fd5b6103fa600480803573ffffffffffffffffffffffffffffffffffffffff16906020019091905050610f66565b6040518082815260200191505060405180910390f35b341561041b57600080fd5b610423610faf565b604051808273ffffffffffffffffffffffffffffffffffffffff1673ffffffffffffffffffffffffffffffffffffffff16815260200191505060405180910390f35b341561047057600080fd5b610478610fd5565b6040518082815260200191505060405180910390f35b341561049957600080fd5b6104a1610fdb565b6040518080602001828103825283818151815260200191508051906020019080838360005b838110156104e15780820151818401526020810190506104c6565b50505050905090810190601f16801561050e5780820380516001836020036101000a031916815260200191505b509250505060405180910390f35b610524611079565b6040518082815260200191505060405180910390f35b341561054557600080fd5b61057a600480803573ffffffffffffffffffffffffffffffffffffffff16906020019091908035906020019091905050611253565b604051808215151515815260200191505060405180910390f35b341561059f57600080fd5b6105d4600480803573ffffffffffffffffffffffffffffffffffffffff16906020019091908035906020019091905050611429565b604051808215151515815260200191505060405180910390f35b34156105f957600080fd5b610644600480803573ffffffffffffffffffffffffffffffffffffffff1690602001909190803573ffffffffffffffffffffffffffffffffffffffff16906020019091905050611625565b6040518082815260200191505060405180910390f35b341561066557600080fd5b61066d6116ac565b604051808b73ffffffffffffffffffffffffffffffffffffffff1673ffffffffffffffffffffffffffffffffffffffff16815260200180602001806020018a815260200189815260200188815260200187815260200186815260200185815260200184815260200183810383528c818151815260200191508051906020019080838360005b8381101561070d5780820151818401526020810190506106f2565b50505050905090810190601f16801561073a5780820380516001836020036101000a031916815260200191505b5083810382528b818151815260200191508051906020019080838360005b83811015610773578082015181840152602081019050610758565b50505050905090810190601f1680156107a05780820380516001836020036101000a031916815260200191505b509c5050505050505050505050505060405180910390f35b60008060006006544203905060045460035410156107f1576008548160035460045403028115156107e557fe5b04600354019150610825565b600454600354111561081e5760085481600454600354030281151561081257fe5b04600354039150610824565b60035491505b5b60008211151561083457600191505b819250505090565b600b5481565b600a8054600181600116156101000203166002900480601f0160208091040260200160405190810160405280929190818152602001828054600181600116156101000203166002900480156108d85780601f106108ad576101008083540402835291602001916108d8565b820191906000526020600020905b8154815290600101906020018083116108bb57829003601f168201915b505050505081565b600081600260003373ffffffffffffffffffffffffffffffffffffffff1673ffffffffffffffffffffffffffffffffffffffff16815260200190815260200160002060008573ffffffffffffffffffffffffffffffffffffffff1673ffffffffffffffffffffffffffffffffffffffff168152602001908152602001600020819055508273ffffffffffffffffffffffffffffffffffffffff163373ffffffffffffffffffffffffffffffffffffffff167f8c5be1e5ebec7d5bd14f71427d1e84f3dd0314c0f7b2291e5b200ac8c7c3b925846040518082815260200191505060405180910390a36001905092915050565b60005481565b600080600073ffffffffffffffffffffffffffffffffffffffff168473ffffffffffffffffffffffffffffffffffffffff1614151515610a1757600080fd5b600260008673ffffffffffffffffffffffffffffffffffffffff1673ffffffffffffffffffffffffffffffffffffffff16815260200190815260200160002060003373ffffffffffffffffffffffffffffffffffffffff1673ffffffffffffffffffffffffffffffffffffffff168152602001908152602001600020549050610ae883600160008873ffffffffffffffffffffffffffffffffffffffff1673ffffffffffffffffffffffffffffffffffffffff1681526020019081526020016000205461185d90919063ffffffff16565b600160008773ffffffffffffffffffffffffffffffffffffffff1673ffffffffffffffffffffffffffffffffffffffff16815260200190815260200160002081905550610b7d83600160008773ffffffffffffffffffffffffffffffffffffffff1673ffffffffffffffffffffffffffffffffffffffff1681526020019081526020016000205461187690919063ffffffff16565b600160008673ffffffffffffffffffffffffffffffffffffffff1673ffffffffffffffffffffffffffffffffffffffff16815260200190815260200160002081905550610bd3838261185d90919063ffffffff16565b600260008773ffffffffffffffffffffffffffffffffffffffff1673ffffffffffffffffffffffffffffffffffffffff16815260200190815260200160002060003373ffffffffffffffffffffffffffffffffffffffff1673ffffffffffffffffffffffffffffffffffffffff168152602001908152602001600020819055508373ffffffffffffffffffffffffffffffffffffffff168573ffffffffffffffffffffffffffffffffffffffff167fddf252ad1be2c89b69c2b068fc378daa952ba7f163c4a11628f55a4df523b3ef856040518082815260200191505060405180910390a360019150509392505050565b601281565b60055481565b60045481565b600080600260003373ffffffffffffffffffffffffffffffffffffffff1673ffffffffffffffffffffffffffffffffffffffff16815260200190815260200160002060008573ffffffffffffffffffffffffffffffffffffffff1673ffffffffffffffffffffffffffffffffffffffff16815260200190815260200160002054905080831115610de6576000600260003373ffffffffffffffffffffffffffffffffffffffff1673ffffffffffffffffffffffffffffffffffffffff16815260200190815260200160002060008673ffffffffffffffffffffffffffffffffffffffff1673ffffffffffffffffffffffffffffffffffffffff16815260200190815260200160002081905550610e7a565b610df9838261185d90919063ffffffff16565b600260003373ffffffffffffffffffffffffffffffffffffffff1673ffffffffffffffffffffffffffffffffffffffff16815260200190815260200160002060008673ffffffffffffffffffffffffffffffffffffffff1673ffffffffffffffffffffffffffffffffffffffff168152602001908152602001600020819055505b8373ffffffffffffffffffffffffffffffffffffffff163373ffffffffffffffffffffffffffffffffffffffff167f8c5be1e5ebec7d5bd14f71427d1e84f3dd0314c0f7b2291e5b200ac8c7c3b925600260003373ffffffffffffffffffffffffffffffffffffffff1673ffffffffffffffffffffffffffffffffffffffff16815260200190815260200160002060008873ffffffffffffffffffffffffffffffffffffffff1673ffffffffffffffffffffffffffffffffffffffff168152602001908152602001600020546040518082815260200191505060405180910390a3600191505092915050565b6000600160008373ffffffffffffffffffffffffffffffffffffffff1673ffffffffffffffffffffffffffffffffffffffff168152602001908152602001600020549050919050565b600d60009054906101000a900473ffffffffffffffffffffffffffffffffffffffff1681565b60035481565b60098054600181600116156101000203166002900480601f0160208091040260200160405190810160405280929190818152602001828054600181600116156101000203166002900480156110715780601f1061104657610100808354040283529160200191611071565b820191906000526020600020905b81548152906001019060200180831161105457829003601f168201915b505050505081565b60006110836107b8565b3481151561108d57fe5b0490508060016000600d60009054906101000a900473ffffffffffffffffffffffffffffffffffffffff1673ffffffffffffffffffffffffffffffffffffffff1673ffffffffffffffffffffffffffffffffffffffff168152602001908152602001600020541080611100575060008111155b1561110a57600080fd5b80600160003373ffffffffffffffffffffffffffffffffffffffff1673ffffffffffffffffffffffffffffffffffffffff168152602001908152602001600020600082825401925050819055508060016000600d60009054906101000a900473ffffffffffffffffffffffffffffffffffffffff1673ffffffffffffffffffffffffffffffffffffffff1673ffffffffffffffffffffffffffffffffffffffff168152602001908152602001600020600082825403925050819055503373ffffffffffffffffffffffffffffffffffffffff16600d60009054906101000a900473ffffffffffffffffffffffffffffffffffffffff1673ffffffffffffffffffffffffffffffffffffffff167fddf252ad1be2c89b69c2b068fc378daa952ba7f163c4a11628f55a4df523b3ef836040518082815260200191505060405180910390a380905090565b60008073ffffffffffffffffffffffffffffffffffffffff168373ffffffffffffffffffffffffffffffffffffffff161415151561129057600080fd5b6112e282600160003373ffffffffffffffffffffffffffffffffffffffff1673ffffffffffffffffffffffffffffffffffffffff1681526020019081526020016000205461185d90919063ffffffff16565b600160003373ffffffffffffffffffffffffffffffffffffffff1673ffffffffffffffffffffffffffffffffffffffff1681526020019081526020016000208190555061137782600160008673ffffffffffffffffffffffffffffffffffffffff1673ffffffffffffffffffffffffffffffffffffffff1681526020019081526020016000205461187690919063ffffffff16565b600160008573ffffffffffffffffffffffffffffffffffffffff1673ffffffffffffffffffffffffffffffffffffffff168152602001908152602001600020819055508273ffffffffffffffffffffffffffffffffffffffff163373ffffffffffffffffffffffffffffffffffffffff167fddf252ad1be2c89b69c2b068fc378daa952ba7f163c4a11628f55a4df523b3ef846040518082815260200191505060405180910390a36001905092915050565b60006114ba82600260003373ffffffffffffffffffffffffffffffffffffffff1673ffffffffffffffffffffffffffffffffffffffff16815260200190815260200160002060008673ffffffffffffffffffffffffffffffffffffffff1673ffffffffffffffffffffffffffffffffffffffff1681526020019081526020016000205461187690919063ffffffff16565b600260003373ffffffffffffffffffffffffffffffffffffffff1673ffffffffffffffffffffffffffffffffffffffff16815260200190815260200160002060008573ffffffffffffffffffffffffffffffffffffffff1673ffffffffffffffffffffffffffffffffffffffff168152602001908152602001600020819055508273ffffffffffffffffffffffffffffffffffffffff163373ffffffffffffffffffffffffffffffffffffffff167f8c5be1e5ebec7d5bd14f71427d1e84f3dd0314c0f7b2291e5b200ac8c7c3b925600260003373ffffffffffffffffffffffffffffffffffffffff1673ffffffffffffffffffffffffffffffffffffffff16815260200190815260200160002060008773ffffffffffffffffffffffffffffffffffffffff1673ffffffffffffffffffffffffffffffffffffffff168152602001908152602001600020546040518082815260200191505060405180910390a36001905092915050565b6000600260008473ffffffffffffffffffffffffffffffffffffffff1673ffffffffffffffffffffffffffffffffffffffff16815260200190815260200160002060008373ffffffffffffffffffffffffffffffffffffffff1673ffffffffffffffffffffffffffffffffffffffff16815260200190815260200160002054905092915050565b60006116b6611894565b6116be611894565b6000806000806000806000600d60009054906101000a900473ffffffffffffffffffffffffffffffffffffffff16600a6009600c54600b54600354600454600554600654600754888054600181600116156101000203166002900480601f01602080910402602001604051908101604052809291908181526020018280546001816001161561010002031660029004801561179a5780601f1061176f5761010080835404028352916020019161179a565b820191906000526020600020905b81548152906001019060200180831161177d57829003601f168201915b50505050509850878054600181600116156101000203166002900480601f0160208091040260200160405190810160405280929190818152602001828054600181600116156101000203166002900480156118365780601f1061180b57610100808354040283529160200191611836565b820191906000526020600020905b81548152906001019060200180831161181957829003601f168201915b50505050509750995099509950995099509950995099509950995090919293949596979899565b600082821115151561186b57fe5b818303905092915050565b600080828401905083811015151561188a57fe5b8091505092915050565b6020604051908101604052806000815250905600a165627a7a723058209acfa714690b60f530161427d17d39d7d4dc37a171fc87cc941226be936c63f10029",
  "source": "pragma solidity ^0.4.8;\r\n\r\nimport '../../node_modules/zeppelin-solidity/contracts/token/StandardToken.sol';\r\n\r\ncontract AuctionToken is StandardToken {\r\n\r\n    uint256 public buyPriceStart;\r\n    uint256 public buyPriceEnd;\r\n\r\n    //What is this for?\r\n    uint256 public sellPrice;\r\n\r\n    uint256 saleStart = 0;\r\n    uint256 saleEnd = 0;\r\n    uint256 saleDuration = 0;\r\n\r\n    string public symbol = \"\";\r\n    string public name = \"\";\r\n\r\n    uint256 public creationDate;\r\n\r\n    uint8 public constant decimals = 18;\r\n    uint256 totalSupply = 0;\r\n\r\n    address public owner;\r\n\r\n    function AuctionToken(uint256 _totalSupply,\r\n      address _owner,\r\n      string _symbol,\r\n      string _name,\r\n      uint256 _buyPriceStart,\r\n      uint256 _buyPriceEnd,\r\n      uint256 _sellPrice,\r\n      uint256 _saleStart,\r\n      uint256 _saleEnd) {\r\n        require(_saleEnd > _saleStart);\r\n\r\n        buyPriceStart = _buyPriceStart;\r\n        buyPriceEnd = _buyPriceEnd;\r\n\r\n        sellPrice = _sellPrice;\r\n        saleEnd = _saleEnd;\r\n        saleStart = _saleStart;\r\n        saleDuration = saleEnd - saleStart;\r\n\r\n        owner = _owner;\r\n        totalSupply = _totalSupply;\r\n        balances[owner] = _totalSupply;\r\n        symbol = _symbol;\r\n        name = _name;\r\n        creationDate = now;\r\n    }\r\n\r\n    function getBuyPrice() constant returns (uint) {\r\n        uint currentPrice;\r\n        uint passed;\r\n        passed = now - saleStart;\r\n        if(buyPriceStart < buyPriceEnd) {\r\n            currentPrice = buyPriceStart + (((buyPriceEnd - buyPriceStart) * passed) / saleDuration);\r\n        } else if (buyPriceStart > buyPriceEnd) {\r\n            currentPrice = buyPriceStart - (((buyPriceStart - buyPriceEnd) * passed) / saleDuration);\r\n        } else {\r\n            currentPrice = buyPriceStart;\r\n        }\r\n        if(currentPrice <= 0){\r\n            currentPrice = 1;\r\n        }\r\n        return currentPrice;\r\n    }\r\n\r\n    function getDetails() constant returns (address _owner,\r\n                                            string _name,\r\n                                            string _symbol,\r\n                                            uint256 _totalSupply,\r\n                                            uint256 _creationDate,\r\n                                            uint256 _buyPriceStart,\r\n                                            uint256 _buyPriceEnd,\r\n                                            uint256 _sellPrice,\r\n                                            uint256 _saleStart,\r\n                                            uint256 _saleEnd){\r\n        return (owner, name, symbol, totalSupply, creationDate, buyPriceStart, buyPriceEnd, sellPrice, saleStart, saleEnd);\r\n    }\r\n    function buy() payable returns (uint amount){\r\n        amount = msg.value / getBuyPrice();                     // calculates the amount\r\n        if (balances[owner] < amount || amount <= 0) throw;     // checks if it has enough to sell\r\n        balances[msg.sender] += amount;                   // adds the amount to buyer's balance\r\n        balances[owner] -= amount;                         // subtracts amount from seller's balance\r\n        Transfer(owner, msg.sender, amount);                // execute an event reflecting the change\r\n        return amount;                                     // ends function and returns\r\n    }\r\n/*\r\n    function sell(uint amount) returns (uint256 revenue){\r\n        if (balances[msg.sender] < amount ) throw;        // checks if the sender has enough to sell\r\n        balances[owner] += amount;                         // adds the amount to owner's balance\r\n        balances[msg.sender] -= amount;                   // subtracts the amount from seller's balance\r\n        revenue = amount * sellPrice;\r\n        if (!msg.sender.send(revenue)) {                   // sends ether to the seller: it's important\r\n            throw;                                         // to do owner last to prevent recursion attacks\r\n        } else {\r\n            Transfer(msg.sender, owner, amount);             // executes an event reflecting on the change\r\n            return revenue;                                 // ends function and returns\r\n        }\r\n    }*/\r\n}\r\n",
  "sourcePath": "C:\\Users\\Theo\\Desktop\\Projects\\GenTo2\\solidity\\contracts\\AuctionToken.sol",
  "compiler": {
    "name": "solc",
    "version": "0.4.18+commit.9cf6e910.Emscripten.clang"
  },
  "schemaVersion": "1.0.1",
  "updatedAt": "2017-12-03T07:55:36.552Z"
}