{
  "contractName": "AuctionToken",
  "abi": [
    {
      "constant": true,
      "inputs": [],
      "name": "getBuyPrice",
      "outputs": [
        {
          "name": "",
          "type": "uint256"
        }
      ],
      "payable": false,
      "stateMutability": "view",
      "type": "function"
    },
    {
      "constant": true,
      "inputs": [],
      "name": "creationDate",
      "outputs": [
        {
          "name": "",
          "type": "uint256"
        }
      ],
      "payable": false,
      "stateMutability": "view",
      "type": "function"
    },
    {
      "constant": true,
      "inputs": [],
      "name": "name",
      "outputs": [
        {
          "name": "",
          "type": "string"
        }
      ],
      "payable": false,
      "stateMutability": "view",
      "type": "function"
    },
    {
      "constant": false,
      "inputs": [
        {
          "name": "_spender",
          "type": "address"
        },
        {
          "name": "_amount",
          "type": "uint256"
        }
      ],
      "name": "approve",
      "outputs": [
        {
          "name": "success",
          "type": "bool"
        }
      ],
      "payable": false,
      "stateMutability": "nonpayable",
      "type": "function"
    },
    {
      "constant": true,
      "inputs": [],
      "name": "totalSupply",
      "outputs": [
        {
          "name": "totalSupply",
          "type": "uint256"
        }
      ],
      "payable": false,
      "stateMutability": "view",
      "type": "function"
    },
    {
      "constant": false,
      "inputs": [
        {
          "name": "_from",
          "type": "address"
        },
        {
          "name": "_to",
          "type": "address"
        },
        {
          "name": "_amount",
          "type": "uint256"
        }
      ],
      "name": "transferFrom",
      "outputs": [
        {
          "name": "success",
          "type": "bool"
        }
      ],
      "payable": false,
      "stateMutability": "nonpayable",
      "type": "function"
    },
    {
      "constant": true,
      "inputs": [],
      "name": "decimals",
      "outputs": [
        {
          "name": "",
          "type": "uint8"
        }
      ],
      "payable": false,
      "stateMutability": "view",
      "type": "function"
    },
    {
      "constant": true,
      "inputs": [],
      "name": "sellPrice",
      "outputs": [
        {
          "name": "",
          "type": "uint256"
        }
      ],
      "payable": false,
      "stateMutability": "view",
      "type": "function"
    },
    {
      "constant": true,
      "inputs": [],
      "name": "buyPriceEnd",
      "outputs": [
        {
          "name": "",
          "type": "uint256"
        }
      ],
      "payable": false,
      "stateMutability": "view",
      "type": "function"
    },
    {
      "constant": true,
      "inputs": [
        {
          "name": "_owner",
          "type": "address"
        }
      ],
      "name": "balanceOf",
      "outputs": [
        {
          "name": "balance",
          "type": "uint256"
        }
      ],
      "payable": false,
      "stateMutability": "view",
      "type": "function"
    },
    {
      "constant": true,
      "inputs": [],
      "name": "buyPrice",
      "outputs": [
        {
          "name": "",
          "type": "uint256"
        }
      ],
      "payable": false,
      "stateMutability": "view",
      "type": "function"
    },
    {
      "constant": true,
      "inputs": [],
      "name": "owner",
      "outputs": [
        {
          "name": "",
          "type": "address"
        }
      ],
      "payable": false,
      "stateMutability": "view",
      "type": "function"
    },
    {
      "constant": true,
      "inputs": [],
      "name": "symbol",
      "outputs": [
        {
          "name": "",
          "type": "string"
        }
      ],
      "payable": false,
      "stateMutability": "view",
      "type": "function"
    },
    {
      "constant": false,
      "inputs": [],
      "name": "buy",
      "outputs": [
        {
          "name": "amount",
          "type": "uint256"
        }
      ],
      "payable": true,
      "stateMutability": "payable",
      "type": "function"
    },
    {
      "constant": false,
      "inputs": [
        {
          "name": "_to",
          "type": "address"
        },
        {
          "name": "_amount",
          "type": "uint256"
        }
      ],
      "name": "transfer",
      "outputs": [
        {
          "name": "success",
          "type": "bool"
        }
      ],
      "payable": false,
      "stateMutability": "nonpayable",
      "type": "function"
    },
    {
      "constant": true,
      "inputs": [
        {
          "name": "_owner",
          "type": "address"
        },
        {
          "name": "_spender",
          "type": "address"
        }
      ],
      "name": "allowance",
      "outputs": [
        {
          "name": "remaining",
          "type": "uint256"
        }
      ],
      "payable": false,
      "stateMutability": "view",
      "type": "function"
    },
    {
      "constant": false,
      "inputs": [
        {
          "name": "amount",
          "type": "uint256"
        }
      ],
      "name": "sell",
      "outputs": [
        {
          "name": "revenue",
          "type": "uint256"
        }
      ],
      "payable": false,
      "stateMutability": "nonpayable",
      "type": "function"
    },
    {
      "constant": true,
      "inputs": [],
      "name": "getDetails",
      "outputs": [
        {
          "name": "_owner",
          "type": "address"
        },
        {
          "name": "_name",
          "type": "string"
        },
        {
          "name": "_symbol",
          "type": "string"
        },
        {
          "name": "totalSupply",
          "type": "uint256"
        },
        {
          "name": "_creationDate",
          "type": "uint256"
        },
        {
          "name": "_buyPriceStart",
          "type": "uint256"
        },
        {
          "name": "_buyPriceEnd",
          "type": "uint256"
        },
        {
          "name": "_sellPrice",
          "type": "uint256"
        },
        {
          "name": "_saleStart",
          "type": "uint256"
        },
        {
          "name": "_saleEnd",
          "type": "uint256"
        }
      ],
      "payable": false,
      "stateMutability": "view",
      "type": "function"
    },
    {
      "inputs": [
        {
          "name": "totalSupply",
          "type": "uint256"
        },
        {
          "name": "_owner",
          "type": "address"
        },
        {
          "name": "_symbol",
          "type": "string"
        },
        {
          "name": "_name",
          "type": "string"
        },
        {
          "name": "_buyPriceStart",
          "type": "uint256"
        },
        {
          "name": "_buyPriceEnd",
          "type": "uint256"
        },
        {
          "name": "_sellPrice",
          "type": "uint256"
        },
        {
          "name": "_saleStart",
          "type": "uint256"
        },
        {
          "name": "_saleEnd",
          "type": "uint256"
        }
      ],
      "payable": false,
      "stateMutability": "nonpayable",
      "type": "constructor"
    },
    {
      "anonymous": false,
      "inputs": [
        {
          "indexed": true,
          "name": "_from",
          "type": "address"
        },
        {
          "indexed": true,
          "name": "_to",
          "type": "address"
        },
        {
          "indexed": false,
          "name": "_value",
          "type": "uint256"
        },
        {
          "indexed": false,
          "name": "_remainingSupply",
          "type": "uint256"
        }
      ],
      "name": "Transfer",
      "type": "event"
    },
    {
      "anonymous": false,
      "inputs": [
        {
          "indexed": true,
          "name": "_owner",
          "type": "address"
        },
        {
          "indexed": true,
          "name": "_spender",
          "type": "address"
        },
        {
          "indexed": false,
          "name": "_value",
          "type": "uint256"
        }
      ],
      "name": "Approval",
      "type": "event"
    }
  ],
  "bytecode": "0x60606040526020604051908101604052806000815250600090805190602001906200002c92919062000225565b506020604051908101604052806000815250600190805190602001906200005592919062000225565b50600060035560006004556000600555600060065534156200007657600080fd5b60405162001a3438038062001a3483398101604052808051906020019091908051906020019091908051820191906020018051820191906020018051906020019091908051906020019091908051906020019091908051906020019091908051906020019091905050888888888887878781811015620000f557600080fd5b86600760006101000a81548173ffffffffffffffffffffffffffffffffffffffff021916908373ffffffffffffffffffffffffffffffffffffffff1602179055508760038190555060035460086000600760009054906101000a900473ffffffffffffffffffffffffffffffffffffffff1673ffffffffffffffffffffffffffffffffffffffff1673ffffffffffffffffffffffffffffffffffffffff168152602001908152602001600020819055508560009080519060200190620001bd92919062000225565b508460019080519060200190620001d692919062000225565b5083600b8190555082600a8190555080600581905550816004819055506004546005540360068190555042600281905550505050505050505083600c81905550505050505050505050620002d4565b828054600181600116156101000203166002900490600052602060002090601f016020900481019282601f106200026857805160ff191683800117855562000299565b8280016001018555821562000299579182015b82811115620002985782518255916020019190600101906200027b565b5b509050620002a89190620002ac565b5090565b620002d191905b80821115620002cd576000816000905550600101620002b3565b5090565b90565b61175080620002e46000396000f3006060604052600436106100fc576000357c0100000000000000000000000000000000000000000000000000000000900463ffffffff168063018a25e81461010157806305b344101461012a57806306fdde0314610153578063095ea7b3146101e157806318160ddd1461023b57806323b872dd14610264578063313ce567146102dd5780634b7503341461030c5780634fa9e0971461033557806370a082311461035e5780638620410b146103ab5780638da5cb5b146103d457806395d89b4114610429578063a6f2ae3a146104b7578063a9059cbb146104d5578063dd62ed3e1461052f578063e4849b321461059b578063fbbf93a0146105d2575b600080fd5b341561010c57600080fd5b610114610730565b6040518082815260200191505060405180910390f35b341561013557600080fd5b61013d6107bb565b6040518082815260200191505060405180910390f35b341561015e57600080fd5b6101666107c1565b6040518080602001828103825283818151815260200191508051906020019080838360005b838110156101a657808201518184015260208101905061018b565b50505050905090810190601f1680156101d35780820380516001836020036101000a031916815260200191505b509250505060405180910390f35b34156101ec57600080fd5b610221600480803573ffffffffffffffffffffffffffffffffffffffff1690602001909190803590602001909190505061085f565b604051808215151515815260200191505060405180910390f35b341561024657600080fd5b61024e610951565b6040518082815260200191505060405180910390f35b341561026f57600080fd5b6102c3600480803573ffffffffffffffffffffffffffffffffffffffff1690602001909190803573ffffffffffffffffffffffffffffffffffffffff1690602001909190803590602001909190505061095b565b604051808215151515815260200191505060405180910390f35b34156102e857600080fd5b6102f0610ccb565b604051808260ff1660ff16815260200191505060405180910390f35b341561031757600080fd5b61031f610cd0565b6040518082815260200191505060405180910390f35b341561034057600080fd5b610348610cd6565b6040518082815260200191505060405180910390f35b341561036957600080fd5b610395600480803573ffffffffffffffffffffffffffffffffffffffff16906020019091905050610cdc565b6040518082815260200191505060405180910390f35b34156103b657600080fd5b6103be610d25565b6040518082815260200191505060405180910390f35b34156103df57600080fd5b6103e7610d2b565b604051808273ffffffffffffffffffffffffffffffffffffffff1673ffffffffffffffffffffffffffffffffffffffff16815260200191505060405180910390f35b341561043457600080fd5b61043c610d51565b6040518080602001828103825283818151815260200191508051906020019080838360005b8381101561047c578082015181840152602081019050610461565b50505050905090810190601f1680156104a95780820380516001836020036101000a031916815260200191505b509250505060405180910390f35b6104bf610def565b6040518082815260200191505060405180910390f35b34156104e057600080fd5b610515600480803573ffffffffffffffffffffffffffffffffffffffff16906020019091908035906020019091905050611032565b604051808215151515815260200191505060405180910390f35b341561053a57600080fd5b610585600480803573ffffffffffffffffffffffffffffffffffffffff1690602001909190803573ffffffffffffffffffffffffffffffffffffffff1690602001909190505061128f565b6040518082815260200191505060405180910390f35b34156105a657600080fd5b6105bc6004808035906020019091905050611316565b6040518082815260200191505060405180910390f35b34156105dd57600080fd5b6105e561155f565b604051808b73ffffffffffffffffffffffffffffffffffffffff1673ffffffffffffffffffffffffffffffffffffffff16815260200180602001806020018a815260200189815260200188815260200187815260200186815260200185815260200184815260200183810383528c818151815260200191508051906020019080838360005b8381101561068557808201518184015260208101905061066a565b50505050905090810190601f1680156106b25780820380516001836020036101000a031916815260200191505b5083810382528b818151815260200191508051906020019080838360005b838110156106eb5780820151818401526020810190506106d0565b50505050905090810190601f1680156107185780820380516001836020036101000a031916815260200191505b509c5050505050505050505050505060405180910390f35b6000806000600c54600b541015610769576004544203905060065481600b54600c54030281151561075d57fe5b04600b540191506107a4565b600c54600b54111561079d576004544203905060065481600c54600b54030281151561079157fe5b04600b540391506107a3565b600b5491505b5b6000821115156107b357600191505b819250505090565b60025481565b60018054600181600116156101000203166002900480601f0160208091040260200160405190810160405280929190818152602001828054600181600116156101000203166002900480156108575780601f1061082c57610100808354040283529160200191610857565b820191906000526020600020905b81548152906001019060200180831161083a57829003601f168201915b505050505081565b600081600960003373ffffffffffffffffffffffffffffffffffffffff1673ffffffffffffffffffffffffffffffffffffffff16815260200190815260200160002060008573ffffffffffffffffffffffffffffffffffffffff1673ffffffffffffffffffffffffffffffffffffffff168152602001908152602001600020819055508273ffffffffffffffffffffffffffffffffffffffff163373ffffffffffffffffffffffffffffffffffffffff167f8c5be1e5ebec7d5bd14f71427d1e84f3dd0314c0f7b2291e5b200ac8c7c3b925846040518082815260200191505060405180910390a36001905092915050565b6000600354905090565b600081600860008673ffffffffffffffffffffffffffffffffffffffff1673ffffffffffffffffffffffffffffffffffffffff1681526020019081526020016000205410158015610a28575081600960008673ffffffffffffffffffffffffffffffffffffffff1673ffffffffffffffffffffffffffffffffffffffff16815260200190815260200160002060003373ffffffffffffffffffffffffffffffffffffffff1673ffffffffffffffffffffffffffffffffffffffff1681526020019081526020016000205410155b8015610a345750600082115b8015610abf5750600860008473ffffffffffffffffffffffffffffffffffffffff1673ffffffffffffffffffffffffffffffffffffffff1681526020019081526020016000205482600860008673ffffffffffffffffffffffffffffffffffffffff1673ffffffffffffffffffffffffffffffffffffffff1681526020019081526020016000205401115b15610cbf5781600860008673ffffffffffffffffffffffffffffffffffffffff1673ffffffffffffffffffffffffffffffffffffffff1681526020019081526020016000206000828254039250508190555081600960008673ffffffffffffffffffffffffffffffffffffffff1673ffffffffffffffffffffffffffffffffffffffff16815260200190815260200160002060003373ffffffffffffffffffffffffffffffffffffffff1673ffffffffffffffffffffffffffffffffffffffff1681526020019081526020016000206000828254039250508190555081600860008573ffffffffffffffffffffffffffffffffffffffff1673ffffffffffffffffffffffffffffffffffffffff168152602001908152602001600020600082825401925050819055508273ffffffffffffffffffffffffffffffffffffffff168473ffffffffffffffffffffffffffffffffffffffff167f9ed053bb818ff08b8353cd46f78db1f0799f31c9e4458fdb425c10eccd2efc448460086000600760009054906101000a900473ffffffffffffffffffffffffffffffffffffffff1673ffffffffffffffffffffffffffffffffffffffff1673ffffffffffffffffffffffffffffffffffffffff16815260200190815260200160002054604051808381526020018281526020019250505060405180910390a360019050610cc4565b600090505b9392505050565b601281565b600a5481565b600c5481565b6000600860008373ffffffffffffffffffffffffffffffffffffffff1673ffffffffffffffffffffffffffffffffffffffff168152602001908152602001600020549050919050565b600b5481565b600760009054906101000a900473ffffffffffffffffffffffffffffffffffffffff1681565b60008054600181600116156101000203166002900480601f016020809104026020016040519081016040528092919081815260200182805460018160011615610100020316600290048015610de75780601f10610dbc57610100808354040283529160200191610de7565b820191906000526020600020905b815481529060010190602001808311610dca57829003601f168201915b505050505081565b6000610df9610730565b34811515610e0357fe5b0490508060086000600760009054906101000a900473ffffffffffffffffffffffffffffffffffffffff1673ffffffffffffffffffffffffffffffffffffffff1673ffffffffffffffffffffffffffffffffffffffff168152602001908152602001600020541080610e76575060008111155b15610e8057600080fd5b80600860003373ffffffffffffffffffffffffffffffffffffffff1673ffffffffffffffffffffffffffffffffffffffff168152602001908152602001600020600082825401925050819055508060086000600760009054906101000a900473ffffffffffffffffffffffffffffffffffffffff1673ffffffffffffffffffffffffffffffffffffffff1673ffffffffffffffffffffffffffffffffffffffff168152602001908152602001600020600082825403925050819055503373ffffffffffffffffffffffffffffffffffffffff16600760009054906101000a900473ffffffffffffffffffffffffffffffffffffffff1673ffffffffffffffffffffffffffffffffffffffff167f9ed053bb818ff08b8353cd46f78db1f0799f31c9e4458fdb425c10eccd2efc448360086000600760009054906101000a900473ffffffffffffffffffffffffffffffffffffffff1673ffffffffffffffffffffffffffffffffffffffff1673ffffffffffffffffffffffffffffffffffffffff16815260200190815260200160002054604051808381526020018281526020019250505060405180910390a380905090565b600081600860003373ffffffffffffffffffffffffffffffffffffffff1673ffffffffffffffffffffffffffffffffffffffff16815260200190815260200160002054101580156110835750600082115b801561110e5750600860008473ffffffffffffffffffffffffffffffffffffffff1673ffffffffffffffffffffffffffffffffffffffff1681526020019081526020016000205482600860008673ffffffffffffffffffffffffffffffffffffffff1673ffffffffffffffffffffffffffffffffffffffff1681526020019081526020016000205401115b156112845781600860003373ffffffffffffffffffffffffffffffffffffffff1673ffffffffffffffffffffffffffffffffffffffff1681526020019081526020016000206000828254039250508190555081600860008573ffffffffffffffffffffffffffffffffffffffff1673ffffffffffffffffffffffffffffffffffffffff168152602001908152602001600020600082825401925050819055508273ffffffffffffffffffffffffffffffffffffffff163373ffffffffffffffffffffffffffffffffffffffff167f9ed053bb818ff08b8353cd46f78db1f0799f31c9e4458fdb425c10eccd2efc448460086000600760009054906101000a900473ffffffffffffffffffffffffffffffffffffffff1673ffffffffffffffffffffffffffffffffffffffff1673ffffffffffffffffffffffffffffffffffffffff16815260200190815260200160002054604051808381526020018281526020019250505060405180910390a360019050611289565b600090505b92915050565b6000600960008473ffffffffffffffffffffffffffffffffffffffff1673ffffffffffffffffffffffffffffffffffffffff16815260200190815260200160002060008373ffffffffffffffffffffffffffffffffffffffff1673ffffffffffffffffffffffffffffffffffffffff16815260200190815260200160002054905092915050565b600081600860003373ffffffffffffffffffffffffffffffffffffffff1673ffffffffffffffffffffffffffffffffffffffff16815260200190815260200160002054101561136457600080fd5b8160086000600760009054906101000a900473ffffffffffffffffffffffffffffffffffffffff1673ffffffffffffffffffffffffffffffffffffffff1673ffffffffffffffffffffffffffffffffffffffff1681526020019081526020016000206000828254019250508190555081600860003373ffffffffffffffffffffffffffffffffffffffff1673ffffffffffffffffffffffffffffffffffffffff16815260200190815260200160002060008282540392505081905550600a54820290503373ffffffffffffffffffffffffffffffffffffffff166108fc829081150290604051600060405180830381858888f19350505050151561146757600080fd5b600760009054906101000a900473ffffffffffffffffffffffffffffffffffffffff1673ffffffffffffffffffffffffffffffffffffffff163373ffffffffffffffffffffffffffffffffffffffff167f9ed053bb818ff08b8353cd46f78db1f0799f31c9e4458fdb425c10eccd2efc448460086000600760009054906101000a900473ffffffffffffffffffffffffffffffffffffffff1673ffffffffffffffffffffffffffffffffffffffff1673ffffffffffffffffffffffffffffffffffffffff16815260200190815260200160002054604051808381526020018281526020019250505060405180910390a3809050919050565b6000611569611710565b611571611710565b6000806000806000806000600760009054906101000a900473ffffffffffffffffffffffffffffffffffffffff1660016000600354600254600b54600c54600a54600454600554888054600181600116156101000203166002900480601f01602080910402602001604051908101604052809291908181526020018280546001816001161561010002031660029004801561164d5780601f106116225761010080835404028352916020019161164d565b820191906000526020600020905b81548152906001019060200180831161163057829003601f168201915b50505050509850878054600181600116156101000203166002900480601f0160208091040260200160405190810160405280929190818152602001828054600181600116156101000203166002900480156116e95780601f106116be576101008083540402835291602001916116e9565b820191906000526020600020905b8154815290600101906020018083116116cc57829003601f168201915b50505050509750995099509950995099509950995099509950995090919293949596979899565b6020604051908101604052806000815250905600a165627a7a72305820559bd40fc09cbd54d9e7357e027d057559b3e5b1a6cb7708edce545bc48359fb0029",
  "source": "pragma solidity ^0.4.8;\r\nimport \"./FixedSupplyToken.sol\";\r\n\r\ncontract AuctionToken is FixedSupplyToken {\r\n\r\n    uint256 public buyPriceEnd;\r\n\r\n    function AuctionToken(uint256 totalSupply,\r\n    address _owner,\r\n    string _symbol,\r\n    string _name,\r\n    uint256 _buyPriceStart,\r\n    uint256 _buyPriceEnd,\r\n    uint256 _sellPrice,\r\n    uint256 _saleStart,\r\n    uint256 _saleEnd) FixedSupplyToken (totalSupply, _owner, _symbol, _name, _buyPriceStart, _sellPrice, _saleStart, _saleEnd){\r\n        /*if(_buyPriceStart > _buyPriceEnd) {\r\n            throw;\r\n        }*/\r\n        buyPriceEnd = _buyPriceEnd;\r\n    }\r\n\r\n    function getBuyPrice() constant returns (uint) {\r\n        uint currentPrice;\r\n        uint passed;\r\n        if(buyPrice < buyPriceEnd) {\r\n            passed = now - saleStart;\r\n            currentPrice = buyPrice + (((buyPriceEnd - buyPrice) * passed) / saleDuration);\r\n        } else if (buyPrice > buyPriceEnd) {\r\n            passed = now - saleStart;\r\n            currentPrice = buyPrice - (((buyPrice - buyPriceEnd) * passed) / saleDuration);\r\n        } else {\r\n            currentPrice = buyPrice;\r\n        }\r\n        if(currentPrice <= 0){\r\n            currentPrice = 1;\r\n        }\r\n        return currentPrice;\r\n    }\r\n\r\n    function getDetails() constant returns (address _owner, \r\n                                            string _name, \r\n                                            string _symbol, \r\n                                            uint256 totalSupply, \r\n                                            uint256 _creationDate,\r\n                                            uint256 _buyPriceStart,\r\n                                            uint256 _buyPriceEnd,\r\n                                            uint256 _sellPrice,\r\n                                            uint256 _saleStart,\r\n                                            uint256 _saleEnd){\r\n        return (owner, name, symbol, _totalSupply, creationDate, buyPrice, buyPriceEnd, sellPrice, saleStart, saleEnd);\r\n    }\r\n}",
  "sourcePath": "C:\\Users\\Theo\\Desktop\\Projects\\GenTo_2\\GenTo\\backend\\contracts\\AuctionToken.sol",
  "compiler": {
    "name": "solc",
    "version": "0.4.18+commit.9cf6e910.Emscripten.clang"
  },
  "schemaVersion": "1.0.1",
  "updatedAt": "2017-12-10T18:19:04.048Z"
}