{
  "contractName": "GentoDaoFactory",
  "abi": [
    {
      "constant": true,
      "inputs": [
        {
          "name": "",
          "type": "uint256"
        }
      ],
      "name": "DAOs",
      "outputs": [
        {
          "name": "",
          "type": "address"
        }
      ],
      "payable": false,
      "stateMutability": "view",
      "type": "function"
    },
    {
      "constant": false,
      "inputs": [],
      "name": "getDAOs",
      "outputs": [
        {
          "name": "daos",
          "type": "address[]"
        }
      ],
      "payable": false,
      "stateMutability": "nonpayable",
      "type": "function"
    },
    {
      "constant": false,
      "inputs": [
        {
          "name": "totalSupply",
          "type": "uint256"
        },
        {
          "name": "symbol",
          "type": "string"
        },
        {
          "name": "name",
          "type": "string"
        },
        {
          "name": "buyPriceStart",
          "type": "uint256"
        },
        {
          "name": "buyPriceEnd",
          "type": "uint256"
        },
        {
          "name": "saleStart",
          "type": "uint256"
        },
        {
          "name": "saleEnd",
          "type": "uint256"
        }
      ],
      "name": "createDAO",
      "outputs": [
        {
          "name": "contractAddress",
          "type": "address"
        }
      ],
      "payable": false,
      "stateMutability": "nonpayable",
      "type": "function"
    },
    {
      "anonymous": false,
      "inputs": [
        {
          "indexed": false,
          "name": "contractAddress",
          "type": "address"
        }
      ],
      "name": "DAOCreated",
      "type": "event"
    }
  ],
  "bytecode": "0x6060604052341561000f57600080fd5b6146a48061001e6000396000f300606060405260043610610057576000357c0100000000000000000000000000000000000000000000000000000000900463ffffffff168063233c8f761461005c578063415cc7dd146100bf578063dbec87e614610129575b600080fd5b341561006757600080fd5b61007d6004808035906020019091905050610236565b604051808273ffffffffffffffffffffffffffffffffffffffff1673ffffffffffffffffffffffffffffffffffffffff16815260200191505060405180910390f35b34156100ca57600080fd5b6100d2610275565b6040518080602001828103825283818151815260200191508051906020019060200280838360005b838110156101155780820151818401526020810190506100fa565b505050509050019250505060405180910390f35b341561013457600080fd5b6101f4600480803590602001909190803590602001908201803590602001908080601f0160208091040260200160405190810160405280939291908181526020018383808284378201915050505050509190803590602001908201803590602001908080601f01602080910402602001604051908101604052809392919081815260200183838082843782019150505050505091908035906020019091908035906020019091908035906020019091908035906020019091905050610309565b604051808273ffffffffffffffffffffffffffffffffffffffff1673ffffffffffffffffffffffffffffffffffffffff16815260200191505060405180910390f35b60008181548110151561024557fe5b90600052602060002090016000915054906101000a900473ffffffffffffffffffffffffffffffffffffffff1681565b61027d610519565b60008054806020026020016040519081016040528092919081815260200182805480156102ff57602002820191906000526020600020905b8160009054906101000a900473ffffffffffffffffffffffffffffffffffffffff1673ffffffffffffffffffffffffffffffffffffffff16815260200190600101908083116102b5575b5050505050905090565b600080600089898989898989600161031f61052d565b8089815260200180602001806020018881526020018781526020018681526020018581526020018415151515815260200183810383528a818151815260200191508051906020019080838360005b8381101561038857808201518184015260208101905061036d565b50505050905090810190601f1680156103b55780820380516001836020036101000a031916815260200191505b50838103825289818151815260200191508051906020019080838360005b838110156103ee5780820151818401526020810190506103d3565b50505050905090810190601f16801561041b5780820380516001836020036101000a031916815260200191505b509a5050505050505050505050604051809103906000f080151561043e57600080fd5b915081905060008054806001018281610457919061053d565b9160005260206000209001600083909190916101000a81548173ffffffffffffffffffffffffffffffffffffffff021916908373ffffffffffffffffffffffffffffffffffffffff160217905550507f9fcbb6a401790bae8845ece14b8ff9237eef958a6fbd81b5eb779be08de1cc3281604051808273ffffffffffffffffffffffffffffffffffffffff1673ffffffffffffffffffffffffffffffffffffffff16815260200191505060405180910390a18092505050979650505050505050565b602060405190810160405280600081525090565b6040516140ea8061058f83390190565b815481835581811511610564578183600052602060002091820191016105639190610569565b5b505050565b61058b91905b8082111561058757600081600090555060010161056f565b5090565b90560060606040526020604051908101604052806000815250600590805190602001906200002c929190620001b6565b5060206040519081016040528060008152506006908051906020019062000055929190620001b6565b506000600a556000600b556000600c556000600d5534156200007657600080fd5b604051620040ea380380620040ea8339810160405280805190602001909190805182019190602001805182019190602001805190602001909190805190602001909190805190602001909190805190602001909190805190602001909190505087878787878787878787878787878787878787878787878786868280806000806101000a81548160ff02191690831515021790555050826005908051906020019062000124929190620001b6565b5081600690805190602001906200013d929190620001b6565b5050505082821115156200015057600080fd5b846008819055508360098190555081600c8190555082600b81905550600b54600c5403600d8190555087600a819055506000600e819055505050505050505050600a60108190555050505050505050505050505050505050505050505050505062000265565b828054600181600116156101000203166002900490600052602060002090601f016020900481019282601f10620001f957805160ff19168380011785556200022a565b828001600101855582156200022a579182015b82811115620002295782518255916020019190600101906200020c565b5b5090506200023991906200023d565b5090565b6200026291905b808211156200025e57600081600090555060010162000244565b5090565b90565b613e7580620002756000396000f3006060604052600436106101ee576000357c0100000000000000000000000000000000000000000000000000000000900463ffffffff168063013cf08b146101f3578063018a25e81461033c57806306fdde0314610365578063095ea7b3146103f35780630d61b5191461044d57806315c513bf1461047057806318160ddd146104b5578063223fae09146104de57806322f8e5661461056057806323b872dd146105835780634804d2f9146105fc5780634fa9e0971461065e578063661884631461068757806369bd3436146106e15780637087f1d21461070a57806370a082311461076c578063798974dd146107b95780637a543a94146107e25780638a69614e1461080f57806392c40b0614610846578063954746fa146108a857806395d89b41146108d15780639a4628361461095f5780639abd3572146109b8578063a6f2ae3a146109db578063a9059cbb146109f9578063ab0bcc4114610a53578063ab377daa14610a7c578063b89a73cb14610adf578063c10b935814610b30578063c7f758a814610b59578063c9d27afe14610c61578063d18e81b314610ca3578063d73dd62314610ccc578063dd62ed3e14610d26578063e26a843f14610d92578063e8db1e7414610de8578063ea2708d014610e22578063eefbbf4714610e7b578063f79e708614610e9e575b600080fd5b34156101fe57600080fd5b6102146004808035906020019091905050610ec7565b604051808c73ffffffffffffffffffffffffffffffffffffffff1673ffffffffffffffffffffffffffffffffffffffff1681526020018b8152602001806020018a600381111561026057fe5b60ff1681526020018981526020018815151515815260200187151515158152602001868152602001856000191660001916815260200184815260200183815260200182810382528b8181546001816001161561010002031660029004815260200191508054600181600116156101000203166002900480156103235780601f106102f857610100808354040283529160200191610323565b820191906000526020600020905b81548152906001019060200180831161030657829003601f168201915b50509c5050505050505050505050505060405180910390f35b341561034757600080fd5b61034f610f76565b6040518082815260200191505060405180910390f35b341561037057600080fd5b610378610fdc565b6040518080602001828103825283818151815260200191508051906020019080838360005b838110156103b857808201518184015260208101905061039d565b50505050905090810190601f1680156103e55780820380516001836020036101000a031916815260200191505b509250505060405180910390f35b34156103fe57600080fd5b610433600480803573ffffffffffffffffffffffffffffffffffffffff1690602001909190803590602001909190505061107a565b604051808215151515815260200191505060405180910390f35b341561045857600080fd5b61046e600480803590602001909190505061116c565b005b341561047b57600080fd5b6104b3600480803560ff1690602001909190803573ffffffffffffffffffffffffffffffffffffffff169060200190919050506112d0565b005b34156104c057600080fd5b6104c8611382565b6040518082815260200191505060405180910390f35b34156104e957600080fd5b61051e600480803573ffffffffffffffffffffffffffffffffffffffff16906020019091908035906020019091905050611388565b604051808273ffffffffffffffffffffffffffffffffffffffff1673ffffffffffffffffffffffffffffffffffffffff16815260200191505060405180910390f35b341561056b57600080fd5b61058160048080359060200190919050506113ca565b005b341561058e57600080fd5b6105e2600480803573ffffffffffffffffffffffffffffffffffffffff1690602001909190803573ffffffffffffffffffffffffffffffffffffffff169060200190919080359060200190919050506113ee565b604051808215151515815260200191505060405180910390f35b341561060757600080fd5b610648600480803573ffffffffffffffffffffffffffffffffffffffff1690602001909190803560ff16906020019091908035906020019091905050611526565b6040518082815260200191505060405180910390f35b341561066957600080fd5b610671611594565b6040518082815260200191505060405180910390f35b341561069257600080fd5b6106c7600480803573ffffffffffffffffffffffffffffffffffffffff1690602001909190803590602001909190505061159a565b604051808215151515815260200191505060405180910390f35b34156106ec57600080fd5b6106f461182b565b6040518082815260200191505060405180910390f35b341561071557600080fd5b610756600480803573ffffffffffffffffffffffffffffffffffffffff1690602001909190803560ff16906020019091908035906020019091905050611831565b6040518082815260200191505060405180910390f35b341561077757600080fd5b6107a3600480803573ffffffffffffffffffffffffffffffffffffffff1690602001909190505061189f565b6040518082815260200191505060405180910390f35b34156107c457600080fd5b6107cc6118e8565b6040518082815260200191505060405180910390f35b34156107ed57600080fd5b6107f56118f5565b604051808215151515815260200191505060405180910390f35b341561081a57600080fd5b6108306004808035906020019091905050611909565b6040518082815260200191505060405180910390f35b341561085157600080fd5b610892600480803573ffffffffffffffffffffffffffffffffffffffff1690602001909190803590602001909190803560ff16906020019091905050611bf9565b6040518082815260200191505060405180910390f35b34156108b357600080fd5b6108bb611e71565b6040518082815260200191505060405180910390f35b34156108dc57600080fd5b6108e4611e77565b6040518080602001828103825283818151815260200191508051906020019080838360005b83811015610924578082015181840152602081019050610909565b50505050905090810190601f1680156109515780820380516001836020036101000a031916815260200191505b509250505060405180910390f35b341561096a57600080fd5b6109a2600480803573ffffffffffffffffffffffffffffffffffffffff1690602001909190803560ff16906020019091905050611f15565b6040518082815260200191505060405180910390f35b34156109c357600080fd5b6109d960048080359060200190919050506121a2565b005b6109e361246a565b6040518082815260200191505060405180910390f35b3415610a0457600080fd5b610a39600480803573ffffffffffffffffffffffffffffffffffffffff16906020019091908035906020019091905050612598565b604051808215151515815260200191505060405180910390f35b3415610a5e57600080fd5b610a666126ce565b6040518082815260200191505060405180910390f35b3415610a8757600080fd5b610a9d60048080359060200190919050506126d4565b604051808273ffffffffffffffffffffffffffffffffffffffff1673ffffffffffffffffffffffffffffffffffffffff16815260200191505060405180910390f35b3415610aea57600080fd5b610b16600480803573ffffffffffffffffffffffffffffffffffffffff16906020019091905050612713565b604051808215151515815260200191505060405180910390f35b3415610b3b57600080fd5b610b4361275e565b6040518082815260200191505060405180910390f35b3415610b6457600080fd5b610b7a6004808035906020019091905050612764565b604051808a73ffffffffffffffffffffffffffffffffffffffff1673ffffffffffffffffffffffffffffffffffffffff168152602001898152602001806020018881526020018715151515815260200186151515158152602001858152602001848152602001838152602001828103825289818151815260200191508051906020019080838360005b83811015610c1e578082015181840152602081019050610c03565b50505050905090810190601f168015610c4b5780820380516001836020036101000a031916815260200191505b509a505050505050505050505060405180910390f35b3415610c6c57600080fd5b610c8d600480803590602001909190803515159060200190919050506128bb565b6040518082815260200191505060405180910390f35b3415610cae57600080fd5b610cb6612b0c565b6040518082815260200191505060405180910390f35b3415610cd757600080fd5b610d0c600480803573ffffffffffffffffffffffffffffffffffffffff16906020019091908035906020019091905050612b33565b604051808215151515815260200191505060405180910390f35b3415610d3157600080fd5b610d7c600480803573ffffffffffffffffffffffffffffffffffffffff1690602001909190803573ffffffffffffffffffffffffffffffffffffffff16906020019091905050612d2f565b6040518082815260200191505060405180910390f35b3415610d9d57600080fd5b610dd2600480803573ffffffffffffffffffffffffffffffffffffffff16906020019091908035906020019091905050612db6565b6040518082815260200191505060405180910390f35b3415610df357600080fd5b610e0c600480803560ff16906020019091905050612ddb565b6040518082815260200191505060405180910390f35b3415610e2d57600080fd5b610e65600480803573ffffffffffffffffffffffffffffffffffffffff1690602001909190803560ff16906020019091905050612f45565b6040518082815260200191505060405180910390f35b3415610e8657600080fd5b610e9c6004808035906020019091905050612fab565b005b3415610ea957600080fd5b610eb16132e9565b6040518082815260200191505060405180910390f35b600f81815481101515610ed657fe5b90600052602060002090600d02016000915090508060000160009054906101000a900473ffffffffffffffffffffffffffffffffffffffff169080600101549080600201908060030160009054906101000a900460ff16908060040154908060050160009054906101000a900460ff16908060050160019054906101000a900460ff1690806006015490806007015490806008015490806009015490508b565b6000806000610f83612b0c565b600b5411151515610f9357600080fd5b610f9b612b0c565b600c54111515610faa57600080fd5b600b54610fb5612b0c565b039050600d54816008546009540302811515610fcd57fe5b04600854019150819250505090565b60068054600181600116156101000203166002900480601f0160208091040260200160405190810160405280929190818152602001828054600181600116156101000203166002900480156110725780601f1061104757610100808354040283529160200191611072565b820191906000526020600020905b81548152906001019060200180831161105557829003601f168201915b505050505081565b600081600460003373ffffffffffffffffffffffffffffffffffffffff1673ffffffffffffffffffffffffffffffffffffffff16815260200190815260200160002060008573ffffffffffffffffffffffffffffffffffffffff1673ffffffffffffffffffffffffffffffffffffffff168152602001908152602001600020819055508273ffffffffffffffffffffffffffffffffffffffff163373ffffffffffffffffffffffffffffffffffffffff167f8c5be1e5ebec7d5bd14f71427d1e84f3dd0314c0f7b2291e5b200ac8c7c3b925846040518082815260200191505060405180910390a36001905092915050565b60008060008061117a6118f5565b151561118557600080fd5b61118e856132ef565b600f8581548110151561119d57fe5b90600052602060002090600d02019350600092505b83600a01805490508310156112c95783600a01838154811015156111d257fe5b9060005260206000209001915061121e8260000160019054906101000a900473ffffffffffffffffffffffffffffffffffffffff168560030160009054906101000a900460ff16611f15565b905080601260008460000160019054906101000a900473ffffffffffffffffffffffffffffffffffffffff1673ffffffffffffffffffffffffffffffffffffffff1673ffffffffffffffffffffffffffffffffffffffff16815260200190815260200160002060008660030160009054906101000a900460ff1660038111156112a357fe5b8152602001908152602001600020600082825401925050819055508260010192506111b2565b5050505050565b6112d933612713565b15156112e457600080fd5b80601160003373ffffffffffffffffffffffffffffffffffffffff1673ffffffffffffffffffffffffffffffffffffffff168152602001908152602001600020600084600381111561133257fe5b815260200190815260200160002060006101000a81548173ffffffffffffffffffffffffffffffffffffffff021916908373ffffffffffffffffffffffffffffffffffffffff1602179055505050565b600e5481565b60116020528160005260406000206020528060005260406000206000915091509054906101000a900473ffffffffffffffffffffffffffffffffffffffff1681565b6000809054906101000a900460ff1615156113e457600080fd5b8060018190555050565b600080600080600360008773ffffffffffffffffffffffffffffffffffffffff1673ffffffffffffffffffffffffffffffffffffffff168152602001908152602001600020549250600360008873ffffffffffffffffffffffffffffffffffffffff1673ffffffffffffffffffffffffffffffffffffffff1681526020019081526020016000205491506114838787876134e3565b90506114cf8783600360008b73ffffffffffffffffffffffffffffffffffffffff1673ffffffffffffffffffffffffffffffffffffffff168152602001908152602001600020546137cf565b6115198684600360008a73ffffffffffffffffffffffffffffffffffffffff1673ffffffffffffffffffffffffffffffffffffffff168152602001908152602001600020546137cf565b8093505050509392505050565b60008060006115336118f5565b151561153e57600080fd5b61154733612713565b151561155257600080fd5b61155e86600087611bf9565b9150600f8281548110151561156f57fe5b90600052602060002090600d0201905083816008018190555081925050509392505050565b60095481565b600080600460003373ffffffffffffffffffffffffffffffffffffffff1673ffffffffffffffffffffffffffffffffffffffff16815260200190815260200160002060008573ffffffffffffffffffffffffffffffffffffffff1673ffffffffffffffffffffffffffffffffffffffff168152602001908152602001600020549050808311156116ab576000600460003373ffffffffffffffffffffffffffffffffffffffff1673ffffffffffffffffffffffffffffffffffffffff16815260200190815260200160002060008673ffffffffffffffffffffffffffffffffffffffff1673ffffffffffffffffffffffffffffffffffffffff1681526020019081526020016000208190555061173f565b6116be838261387390919063ffffffff16565b600460003373ffffffffffffffffffffffffffffffffffffffff1673ffffffffffffffffffffffffffffffffffffffff16815260200190815260200160002060008673ffffffffffffffffffffffffffffffffffffffff1673ffffffffffffffffffffffffffffffffffffffff168152602001908152602001600020819055505b8373ffffffffffffffffffffffffffffffffffffffff163373ffffffffffffffffffffffffffffffffffffffff167f8c5be1e5ebec7d5bd14f71427d1e84f3dd0314c0f7b2291e5b200ac8c7c3b925600460003373ffffffffffffffffffffffffffffffffffffffff1673ffffffffffffffffffffffffffffffffffffffff16815260200190815260200160002060008873ffffffffffffffffffffffffffffffffffffffff1673ffffffffffffffffffffffffffffffffffffffff168152602001908152602001600020546040518082815260200191505060405180910390a3600191505092915050565b60105481565b600080600061183e6118f5565b151561184957600080fd5b61185233612713565b151561185d57600080fd5b61186986600087611bf9565b9150600f8281548110151561187a57fe5b90600052602060002090600d0201905083816009018190555081925050509392505050565b6000600360008373ffffffffffffffffffffffffffffffffffffffff1673ffffffffffffffffffffffffffffffffffffffff168152602001908152602001600020549050919050565b6000600f80549050905090565b60006118ff612b0c565b600c541115905090565b600080611914612b0c565b600c541115151561192457600080fd5b600f8381548110151561193357fe5b90600052602060002090600d020190508060050160009054906101000a900460ff16801561196f57508060050160019054906101000a900460ff165b80156119ca57503373ffffffffffffffffffffffffffffffffffffffff168160000160009054906101000a900473ffffffffffffffffffffffffffffffffffffffff1673ffffffffffffffffffffffffffffffffffffffff16145b8015611a2857506000151581600c0160003373ffffffffffffffffffffffffffffffffffffffff1673ffffffffffffffffffffffffffffffffffffffff16815260200190815260200160002060009054906101000a900460ff161515145b8015611a38575060008160010154115b1515611a4357600080fd5b8060010154600360003373ffffffffffffffffffffffffffffffffffffffff1673ffffffffffffffffffffffffffffffffffffffff16815260200190815260200160002060008282540192505081905550600181600c0160003373ffffffffffffffffffffffffffffffffffffffff1673ffffffffffffffffffffffffffffffffffffffff16815260200190815260200160002060006101000a81548160ff0219169083151502179055507f16b07355b0ef507fabe8b3066992bd0cc3010087b8c25dcda2fc1ef6de1a366f833383600c0160003373ffffffffffffffffffffffffffffffffffffffff1673ffffffffffffffffffffffffffffffffffffffff16815260200190815260200160002060009054906101000a900460ff1660405180806020018581526020018473ffffffffffffffffffffffffffffffffffffffff1673ffffffffffffffffffffffffffffffffffffffff16815260200183151515158152602001828103825260068152602001807f7061796f7574000000000000000000000000000000000000000000000000000081525060200194505050505060405180910390a18060010154915050919050565b600080611c046118f5565b1515611c0f57600080fd5b611c1833612713565b1515611c2357600080fd5b7f5e28120de832fe0c2a91ef3a9d86b066a7a0742bd04024a0deac8a011fe1ff9d8560405180806020018373ffffffffffffffffffffffffffffffffffffffff1673ffffffffffffffffffffffffffffffffffffffff1681526020018281038252600b8152602001807f42454e45464943494152590000000000000000000000000000000000000000008152506020019250505060405180910390a1600f8054809190600101611cd39190613bf1565b9150600f82815481101515611ce457fe5b90600052602060002090600d02019050848160000160006101000a81548173ffffffffffffffffffffffffffffffffffffffff021916908373ffffffffffffffffffffffffffffffffffffffff1602179055508381600101819055508484604051808373ffffffffffffffffffffffffffffffffffffffff1673ffffffffffffffffffffffffffffffffffffffff166c01000000000000000000000000028152601401828152602001925050506040518091039020816007018160001916905550603c60105402611db3612b0c565b01816004018190555060008160050160006101000a81548160ff021916908315150217905550828160030160006101000a81548160ff02191690836003811115611df957fe5b021790555060008160050160016101000a81548160ff02191690831515021790555060008160080181905550600081600901819055507fee1d83fbddd2230944c94157b6171525bb72e7719cee4f7fa18eb96871e054d8826040518082815260200191505060405180910390a1819150509392505050565b60085481565b60058054600181600116156101000203166002900480601f016020809104026020016040519081016040528092919081815260200182805460018160011615610100020316600290048015611f0d5780601f10611ee257610100808354040283529160200191611f0d565b820191906000526020600020905b815481529060010190602001808311611ef057829003601f168201915b505050505081565b6000806000809150600090505b6007805490508110156120a2578473ffffffffffffffffffffffffffffffffffffffff1660116000600784815481101515611f5957fe5b906000526020600020900160009054906101000a900473ffffffffffffffffffffffffffffffffffffffff1673ffffffffffffffffffffffffffffffffffffffff1673ffffffffffffffffffffffffffffffffffffffff1681526020019081526020016000206000866003811115611fcd57fe5b815260200190815260200160002060009054906101000a900473ffffffffffffffffffffffffffffffffffffffff1673ffffffffffffffffffffffffffffffffffffffff161415612097576003600060078381548110151561202b57fe5b906000526020600020900160009054906101000a900473ffffffffffffffffffffffffffffffffffffffff1673ffffffffffffffffffffffffffffffffffffffff1673ffffffffffffffffffffffffffffffffffffffff16815260200190815260200160002054820191505b806001019050611f22565b600073ffffffffffffffffffffffffffffffffffffffff16601160008773ffffffffffffffffffffffffffffffffffffffff1673ffffffffffffffffffffffffffffffffffffffff168152602001908152602001600020600086600381111561210757fe5b815260200190815260200160002060009054906101000a900473ffffffffffffffffffffffffffffffffffffffff1673ffffffffffffffffffffffffffffffffffffffff16141561219757600360008673ffffffffffffffffffffffffffffffffffffffff1673ffffffffffffffffffffffffffffffffffffffff16815260200190815260200160002054820191505b819250505092915050565b60006121ad33612713565b15156121b857600080fd5b600f828154811015156121c757fe5b90600052602060002090600d020190508060050160009054906101000a900460ff16801561220357508060050160019054906101000a900460ff165b801561226157506000151581600c0160003373ffffffffffffffffffffffffffffffffffffffff1673ffffffffffffffffffffffffffffffffffffffff16815260200190815260200160002060009054906101000a900460ff161515145b8015612271575060008160080154115b151561227c57600080fd5b8060080154600360003373ffffffffffffffffffffffffffffffffffffffff1673ffffffffffffffffffffffffffffffffffffffff1681526020019081526020016000205402600360003373ffffffffffffffffffffffffffffffffffffffff1673ffffffffffffffffffffffffffffffffffffffff16815260200190815260200160002060008282540192505081905550600181600c0160003373ffffffffffffffffffffffffffffffffffffffff1673ffffffffffffffffffffffffffffffffffffffff16815260200190815260200160002060006101000a81548160ff0219169083151502179055507f16b07355b0ef507fabe8b3066992bd0cc3010087b8c25dcda2fc1ef6de1a366f823383600c0160003373ffffffffffffffffffffffffffffffffffffffff1673ffffffffffffffffffffffffffffffffffffffff16815260200190815260200160002060009054906101000a900460ff1660405180806020018581526020018473ffffffffffffffffffffffffffffffffffffffff1673ffffffffffffffffffffffffffffffffffffffff16815260200183151515158152602001828103825260088152602001807f6469766964656e6400000000000000000000000000000000000000000000000081525060200194505050505060405180910390a15050565b6000612474612b0c565b600b541115151561248457600080fd5b61248c612b0c565b600c5411151561249b57600080fd5b6124a3610f76565b348115156124ad57fe5b04905080600a541115156124c057600080fd5b6000811115156124cf57600080fd5b61251a3382600360003373ffffffffffffffffffffffffffffffffffffffff1673ffffffffffffffffffffffffffffffffffffffff168152602001908152602001600020540161388c565b80600a6000828254039250508190555080600e600082825401925050819055503373ffffffffffffffffffffffffffffffffffffffff167ff037726de19a27d8066440c94fe2d19b1b88b54f912af36fe52cc29065cdb61382600a54604051808381526020018281526020019250505060405180910390a280905090565b600080600080600360008773ffffffffffffffffffffffffffffffffffffffff1673ffffffffffffffffffffffffffffffffffffffff168152602001908152602001600020549250600360003373ffffffffffffffffffffffffffffffffffffffff1673ffffffffffffffffffffffffffffffffffffffff16815260200190815260200160002054915061262c8686613924565b90506126783383600360003373ffffffffffffffffffffffffffffffffffffffff1673ffffffffffffffffffffffffffffffffffffffff168152602001908152602001600020546137cf565b6126c28684600360008a73ffffffffffffffffffffffffffffffffffffffff1673ffffffffffffffffffffffffffffffffffffffff168152602001908152602001600020546137cf565b80935050505092915050565b600b5481565b6007818154811015156126e357fe5b90600052602060002090016000915054906101000a900473ffffffffffffffffffffffffffffffffffffffff1681565b600080600360008473ffffffffffffffffffffffffffffffffffffffff1673ffffffffffffffffffffffffffffffffffffffff16815260200190815260200160002054119050919050565b600c5481565b60008061276f613c23565b6000806000806000806000600f8b81548110151561278957fe5b90600052602060002090600d020190508060000160009054906101000a900473ffffffffffffffffffffffffffffffffffffffff1681600101548260020183600401548460050160009054906101000a900460ff168560050160019054906101000a900460ff16866006015487600801548860090154868054600181600116156101000203166002900480601f0160208091040260200160405190810160405280929190818152602001828054600181600116156101000203166002900480156128945780601f1061286957610100808354040283529160200191612894565b820191906000526020600020905b81548152906001019060200180831161287757829003601f168201915b50505050509650995099509950995099509950995099509950509193959799909294969850565b6000806128c66118f5565b15156128d157600080fd5b6128da33612713565b15156128e557600080fd5b600f848154811015156128f457fe5b90600052602060002090600d020190506001151581600b0160003373ffffffffffffffffffffffffffffffffffffffff1673ffffffffffffffffffffffffffffffffffffffff16815260200190815260200160002060009054906101000a900460ff1615151415151561296657600080fd5b80600a01805480919060010161297c9190613c37565b9150604080519081016040528084151581526020013373ffffffffffffffffffffffffffffffffffffffff1681525081600a01838154811015156129bc57fe5b906000526020600020900160008201518160000160006101000a81548160ff02191690831515021790555060208201518160000160016101000a81548173ffffffffffffffffffffffffffffffffffffffff021916908373ffffffffffffffffffffffffffffffffffffffff160217905550905050600181600b0160003373ffffffffffffffffffffffffffffffffffffffff1673ffffffffffffffffffffffffffffffffffffffff16815260200190815260200160002060006101000a81548160ff0219169083151502179055507f86abfce99b7dd908bec0169288797f85049ec73cbe046ed9de818fab3a497ae084843360405180848152602001831515151581526020018273ffffffffffffffffffffffffffffffffffffffff1673ffffffffffffffffffffffffffffffffffffffff168152602001935050505060405180910390a18191505092915050565b60008060009054906101000a900460ff1615612b2c576001549050612b30565b4290505b90565b6000612bc482600460003373ffffffffffffffffffffffffffffffffffffffff1673ffffffffffffffffffffffffffffffffffffffff16815260200190815260200160002060008673ffffffffffffffffffffffffffffffffffffffff1673ffffffffffffffffffffffffffffffffffffffff16815260200190815260200160002054613afa90919063ffffffff16565b600460003373ffffffffffffffffffffffffffffffffffffffff1673ffffffffffffffffffffffffffffffffffffffff16815260200190815260200160002060008573ffffffffffffffffffffffffffffffffffffffff1673ffffffffffffffffffffffffffffffffffffffff168152602001908152602001600020819055508273ffffffffffffffffffffffffffffffffffffffff163373ffffffffffffffffffffffffffffffffffffffff167f8c5be1e5ebec7d5bd14f71427d1e84f3dd0314c0f7b2291e5b200ac8c7c3b925600460003373ffffffffffffffffffffffffffffffffffffffff1673ffffffffffffffffffffffffffffffffffffffff16815260200190815260200160002060008773ffffffffffffffffffffffffffffffffffffffff1673ffffffffffffffffffffffffffffffffffffffff168152602001908152602001600020546040518082815260200191505060405180910390a36001905092915050565b6000600460008473ffffffffffffffffffffffffffffffffffffffff1673ffffffffffffffffffffffffffffffffffffffff16815260200190815260200160002060008373ffffffffffffffffffffffffffffffffffffffff1673ffffffffffffffffffffffffffffffffffffffff16815260200190815260200160002054905092915050565b6012602052816000526040600020602052806000526040600020600091509150505481565b6000806000809150600090505b600780549050811015612f3b57600060126000600784815481101515612e0a57fe5b906000526020600020900160009054906101000a900473ffffffffffffffffffffffffffffffffffffffff1673ffffffffffffffffffffffffffffffffffffffff1673ffffffffffffffffffffffffffffffffffffffff1681526020019081526020016000206000866003811115612e7e57fe5b8152602001908152602001600020541115612f2e5760126000600783815481101515612ea657fe5b906000526020600020900160009054906101000a900473ffffffffffffffffffffffffffffffffffffffff1673ffffffffffffffffffffffffffffffffffffffff1673ffffffffffffffffffffffffffffffffffffffff1681526020019081526020016000206000856003811115612f1a57fe5b815260200190815260200160002054820191505b8080600101915050612de8565b8192505050919050565b6000601260008473ffffffffffffffffffffffffffffffffffffffff1673ffffffffffffffffffffffffffffffffffffffff1681526020019081526020016000206000836003811115612f9457fe5b815260200190815260200160002054905092915050565b6000612fb633612713565b1515612fc157600080fd5b600f82815481101515612fd057fe5b90600052602060002090600d020190508060050160009054906101000a900460ff16801561300c57508060050160019054906101000a900460ff165b801561301d57506000816009015414155b801561307b57506000151581600c0160003373ffffffffffffffffffffffffffffffffffffffff1673ffffffffffffffffffffffffffffffffffffffff16815260200190815260200160002060009054906101000a900460ff161515145b151561308657600080fd5b6130a08160030160009054906101000a900460ff16612ddb565b6130bb338360030160009054906101000a900460ff16612f45565b8260090154028115156130ca57fe5b04600360003373ffffffffffffffffffffffffffffffffffffffff1673ffffffffffffffffffffffffffffffffffffffff16815260200190815260200160002060008282540192505081905550600181600c0160003373ffffffffffffffffffffffffffffffffffffffff1673ffffffffffffffffffffffffffffffffffffffff16815260200190815260200160002060006101000a81548160ff0219169083151502179055507fe8d947d7ebdd7b8b8fa2ad2022c7591418ac32d8c29c5f8a8fc9de52ffa54092600360003373ffffffffffffffffffffffffffffffffffffffff1673ffffffffffffffffffffffffffffffffffffffff168152602001908152602001600020546040518082815260200191505060405180910390a17f16b07355b0ef507fabe8b3066992bd0cc3010087b8c25dcda2fc1ef6de1a366f823383600c0160003373ffffffffffffffffffffffffffffffffffffffff1673ffffffffffffffffffffffffffffffffffffffff16815260200190815260200160002060009054906101000a900460ff1660405180806020018581526020018473ffffffffffffffffffffffffffffffffffffffff1673ffffffffffffffffffffffffffffffffffffffff16815260200183151515158152602001828103825260158152602001807f6465636973696f6e206d616b657220726577617264000000000000000000000081525060200194505050505060405180910390a15050565b600a5481565b6000806000806000806133006118f5565b151561330b57600080fd5b600f8781548110151561331a57fe5b90600052602060002090600d020195508560040154613337612b0c565b11801561335357508560050160009054906101000a900460ff16155b151561335e57600080fd5b6000945060009350600092505b85600a018054905083101561340b5785600a018381548110151561338b57fe5b906000526020600020900191506133d78260000160019054906101000a900473ffffffffffffffffffffffffffffffffffffffff168760030160009054906101000a900460ff16611f15565b90508160000160009054906101000a900460ff16156133fa578085019450613400565b80840193505b82600101925061336b565b60018660050160006101000a81548160ff021916908315150217905550838511156134525760018660050160016101000a81548160ff021916908315150217905550613470565b60008660050160016101000a81548160ff0219169083151502179055505b8385016064860281151561348057fe5b0486600601819055507f2dd3f5584a771bc843db895406d7654e86495c1f4cfb8ce79ababa8c193dbedc8785870187876040518085815260200184815260200183815260200182815260200194505050505060405180910390a150505050505050565b600080600073ffffffffffffffffffffffffffffffffffffffff168473ffffffffffffffffffffffffffffffffffffffff161415151561352257600080fd5b600460008673ffffffffffffffffffffffffffffffffffffffff1673ffffffffffffffffffffffffffffffffffffffff16815260200190815260200160002060003373ffffffffffffffffffffffffffffffffffffffff1673ffffffffffffffffffffffffffffffffffffffff1681526020019081526020016000205490506135f383600360008873ffffffffffffffffffffffffffffffffffffffff1673ffffffffffffffffffffffffffffffffffffffff1681526020019081526020016000205461387390919063ffffffff16565b600360008773ffffffffffffffffffffffffffffffffffffffff1673ffffffffffffffffffffffffffffffffffffffff1681526020019081526020016000208190555061368883600360008773ffffffffffffffffffffffffffffffffffffffff1673ffffffffffffffffffffffffffffffffffffffff16815260200190815260200160002054613afa90919063ffffffff16565b600360008673ffffffffffffffffffffffffffffffffffffffff1673ffffffffffffffffffffffffffffffffffffffff168152602001908152602001600020819055506136de838261387390919063ffffffff16565b600460008773ffffffffffffffffffffffffffffffffffffffff1673ffffffffffffffffffffffffffffffffffffffff16815260200190815260200160002060003373ffffffffffffffffffffffffffffffffffffffff1673ffffffffffffffffffffffffffffffffffffffff168152602001908152602001600020819055508373ffffffffffffffffffffffffffffffffffffffff168573ffffffffffffffffffffffffffffffffffffffff167fddf252ad1be2c89b69c2b068fc378daa952ba7f163c4a11628f55a4df523b3ef856040518082815260200191505060405180910390a360019150509392505050565b6000821480156137e0575060008114155b1561384d57600780548060010182816137f99190613c63565b9160005260206000209001600085909190916101000a81548173ffffffffffffffffffffffffffffffffffffffff021916908373ffffffffffffffffffffffffffffffffffffffff1602179055505061386e565b6000821415801561385e5750600081145b1561386d5761386c83613b18565b5b5b505050565b600082821115151561388157fe5b818303905092915050565b6000600360008473ffffffffffffffffffffffffffffffffffffffff1673ffffffffffffffffffffffffffffffffffffffff16815260200190815260200160002054905081600360008573ffffffffffffffffffffffffffffffffffffffff1673ffffffffffffffffffffffffffffffffffffffff1681526020019081526020016000208190555061391f8382846137cf565b505050565b60008073ffffffffffffffffffffffffffffffffffffffff168373ffffffffffffffffffffffffffffffffffffffff161415151561396157600080fd5b6139b382600360003373ffffffffffffffffffffffffffffffffffffffff1673ffffffffffffffffffffffffffffffffffffffff1681526020019081526020016000205461387390919063ffffffff16565b600360003373ffffffffffffffffffffffffffffffffffffffff1673ffffffffffffffffffffffffffffffffffffffff16815260200190815260200160002081905550613a4882600360008673ffffffffffffffffffffffffffffffffffffffff1673ffffffffffffffffffffffffffffffffffffffff16815260200190815260200160002054613afa90919063ffffffff16565b600360008573ffffffffffffffffffffffffffffffffffffffff1673ffffffffffffffffffffffffffffffffffffffff168152602001908152602001600020819055508273ffffffffffffffffffffffffffffffffffffffff163373ffffffffffffffffffffffffffffffffffffffff167fddf252ad1be2c89b69c2b068fc378daa952ba7f163c4a11628f55a4df523b3ef846040518082815260200191505060405180910390a36001905092915050565b6000808284019050838110151515613b0e57fe5b8091505092915050565b60008090505b600780549050811015613be8578173ffffffffffffffffffffffffffffffffffffffff16600782815481101515613b5157fe5b906000526020600020900160009054906101000a900473ffffffffffffffffffffffffffffffffffffffff1673ffffffffffffffffffffffffffffffffffffffff161415613bdb57600781815481101515613ba857fe5b906000526020600020900160006101000a81549073ffffffffffffffffffffffffffffffffffffffff0219169055613bed565b8080600101915050613b1e565b600080fd5b5050565b815481835581811511613c1e57600d0281600d028360005260206000209182019101613c1d9190613c8f565b5b505050565b602060405190810160405280600081525090565b815481835581811511613c5e57818360005260206000209182019101613c5d9190613d61565b5b505050565b815481835581811511613c8a57818360005260206000209182019101613c899190613dbb565b5b505050565b613d5e91905b80821115613d5a57600080820160006101000a81549073ffffffffffffffffffffffffffffffffffffffff02191690556001820160009055600282016000613cdd9190613de0565b6003820160006101000a81549060ff021916905560048201600090556005820160006101000a81549060ff02191690556005820160016101000a81549060ff02191690556006820160009055600782016000905560088201600090556009820160009055600a82016000613d519190613e28565b50600d01613c95565b5090565b90565b613db891905b80821115613db457600080820160006101000a81549060ff02191690556000820160016101000a81549073ffffffffffffffffffffffffffffffffffffffff021916905550600101613d67565b5090565b90565b613ddd91905b80821115613dd9576000816000905550600101613dc1565b5090565b90565b50805460018160011615610100020316600290046000825580601f10613e065750613e25565b601f016020900490600052602060002090810190613e249190613dbb565b5b50565b5080546000825590600052602060002090810190613e469190613d61565b505600a165627a7a72305820b6a249a7ab03cea4ead968aaa06ac9d67bb06ec898ee93816ad6db3ee51386820029a165627a7a72305820547b09f1883285bc8bf22535083fdfa6053adf8fcf32ccec41fe17859ae503430029",
  "source": "pragma solidity ^0.4.8;\r\n\r\n//Contract Factory\r\nimport './GentoDao.sol';\r\ncontract GentoDaoFactory {\r\n\r\n    address[] public DAOs;\r\n\r\n    event DAOCreated(address contractAddress);\r\n\r\n    function getDAOs() returns (address[] daos) {\r\n        return DAOs;\r\n    }\r\n\r\n    function createDAO(uint256 totalSupply,\r\n                            string symbol,\r\n                            string name,\r\n                            uint256 buyPriceStart,\r\n                            uint256 buyPriceEnd,\r\n                            uint256 saleStart,\r\n                            uint256 saleEnd) returns (address contractAddress){\r\n\r\n        GentoDao gentoDao = new GentoDao(totalSupply,\r\n                                                     symbol,\r\n                                                     name,\r\n                                                     buyPriceStart,\r\n                                                     buyPriceEnd,\r\n                                                     saleStart,\r\n                                                     saleEnd,\r\n                                                     true);\r\n\r\n        address auctionAddress = address(gentoDao);\r\n        DAOs.push(auctionAddress);\r\n        DAOCreated(auctionAddress);\r\n        return auctionAddress;\r\n    }\r\n\r\n}\r\n",
  "sourcePath": "C:\\Users\\Theo\\Desktop\\Projects\\Gen_To_2\\GenTo2\\solidity\\contracts\\GentoDaoFactory.sol",
  "compiler": {
    "name": "solc",
    "version": "0.4.18+commit.9cf6e910.Emscripten.clang"
  },
  "schemaVersion": "1.0.1",
  "updatedAt": "2018-01-22T15:41:34.343Z"
}