{
  "contractName": "GenToFactory",
  "abi": [
    {
      "constant": false,
      "inputs": [],
      "name": "kill",
      "outputs": [],
      "payable": false,
      "stateMutability": "nonpayable",
      "type": "function"
    },
    {
      "constant": true,
      "inputs": [
        {
          "name": "_owner",
          "type": "address"
        }
      ],
      "name": "getICOsFromOwner",
      "outputs": [
        {
          "name": "",
          "type": "address[]"
        }
      ],
      "payable": false,
      "stateMutability": "view",
      "type": "function"
    },
    {
      "constant": false,
      "inputs": [
        {
          "name": "totalSupply",
          "type": "uint256"
        },
        {
          "name": "_symbol",
          "type": "string"
        },
        {
          "name": "_name",
          "type": "string"
        },
        {
          "name": "_buyPriceStart",
          "type": "uint256"
        },
        {
          "name": "_buyPriceEnd",
          "type": "uint256"
        },
        {
          "name": "_sellPrice",
          "type": "uint256"
        },
        {
          "name": "_saleStart",
          "type": "uint256"
        },
        {
          "name": "_saleEnd",
          "type": "uint256"
        }
      ],
      "name": "createContract",
      "outputs": [
        {
          "name": "contractAddress",
          "type": "address"
        }
      ],
      "payable": false,
      "stateMutability": "nonpayable",
      "type": "function"
    },
    {
      "inputs": [],
      "payable": false,
      "stateMutability": "nonpayable",
      "type": "constructor"
    },
    {
      "anonymous": false,
      "inputs": [
        {
          "indexed": false,
          "name": "owner",
          "type": "address"
        },
        {
          "indexed": false,
          "name": "contractAddress",
          "type": "address"
        }
      ],
      "name": "ContractCreated",
      "type": "event"
    }
  ],
  "bytecode": "0x6060604052341561000f57600080fd5b336000806101000a81548173ffffffffffffffffffffffffffffffffffffffff021916908373ffffffffffffffffffffffffffffffffffffffff16021790555061236e8061005e6000396000f300606060405260043610610057576000357c0100000000000000000000000000000000000000000000000000000000900463ffffffff16806341c0e1b51461005c5780636f88d49c14610071578063d163f22a146100ff575b600080fd5b341561006757600080fd5b61006f610215565b005b341561007c57600080fd5b6100a8600480803573ffffffffffffffffffffffffffffffffffffffff169060200190919050506102a6565b6040518080602001828103825283818151815260200191508051906020019060200280838360005b838110156100eb5780820151818401526020810190506100d0565b505050509050019250505060405180910390f35b341561010a57600080fd5b6101d3600480803590602001909190803590602001908201803590602001908080601f0160208091040260200160405190810160405280939291908181526020018383808284378201915050505050509190803590602001908201803590602001908080601f01602080910402602001604051908101604052809392919081815260200183838082843782019150505050505091908035906020019091908035906020019091908035906020019091908035906020019091908035906020019091905050610379565b604051808273ffffffffffffffffffffffffffffffffffffffff1673ffffffffffffffffffffffffffffffffffffffff16815260200191505060405180910390f35b6000809054906101000a900473ffffffffffffffffffffffffffffffffffffffff1673ffffffffffffffffffffffffffffffffffffffff163373ffffffffffffffffffffffffffffffffffffffff1614156102a4576000809054906101000a900473ffffffffffffffffffffffffffffffffffffffff1673ffffffffffffffffffffffffffffffffffffffff16ff5b565b6102ae61062f565b600160008373ffffffffffffffffffffffffffffffffffffffff1673ffffffffffffffffffffffffffffffffffffffff16815260200190815260200160002080548060200260200160405190810160405280929190818152602001828054801561036d57602002820191906000526020600020905b8160009054906101000a900473ffffffffffffffffffffffffffffffffffffffff1673ffffffffffffffffffffffffffffffffffffffff1681526020019060010190808311610323575b50505050509050919050565b6000806000803392508b838c8c8c8c8c8c8c610393610643565b808a81526020018973ffffffffffffffffffffffffffffffffffffffff1673ffffffffffffffffffffffffffffffffffffffff168152602001806020018060200188815260200187815260200186815260200185815260200184815260200183810383528a818151815260200191508051906020019080838360005b8381101561042a57808201518184015260208101905061040f565b50505050905090810190601f1680156104575780820380516001836020036101000a031916815260200191505b50838103825289818151815260200191508051906020019080838360005b83811015610490578082015181840152602081019050610475565b50505050905090810190601f1680156104bd5780820380516001836020036101000a031916815260200191505b509b505050505050505050505050604051809103906000f08015156104e157600080fd5b9150819050600160008473ffffffffffffffffffffffffffffffffffffffff1673ffffffffffffffffffffffffffffffffffffffff16815260200190815260200160002080548060010182816105379190610653565b9160005260206000209001600083909190916101000a81548173ffffffffffffffffffffffffffffffffffffffff021916908373ffffffffffffffffffffffffffffffffffffffff160217905550507f2d49c67975aadd2d389580b368cfff5b49965b0bd5da33c144922ce01e7a4d7b8382604051808373ffffffffffffffffffffffffffffffffffffffff1673ffffffffffffffffffffffffffffffffffffffff1681526020018273ffffffffffffffffffffffffffffffffffffffff1673ffffffffffffffffffffffffffffffffffffffff1681526020019250505060405180910390a180935050505098975050505050505050565b602060405190810160405280600081525090565b604051611c9e806106a583390190565b81548183558181151161067a57818360005260206000209182019101610679919061067f565b5b505050565b6106a191905b8082111561069d576000816000905550600101610685565b5090565b90560060606040526000600655600060075560006008556020604051908101604052806000815250600990805190602001906200003b92919062000214565b506020604051908101604052806000815250600a90805190602001906200006492919062000214565b506000600c5534156200007657600080fd5b60405162001c9e38038062001c9e833981016040528080519060200190919080519060200190919080518201919060200180518201919060200180519060200190919080519060200190919080519060200190919080519060200190919080519060200190919050508181111515620000ee57600080fd5b84600381905550836004819055508260058190555080600781905550816006819055506006546007540360088190555087600d60006101000a81548173ffffffffffffffffffffffffffffffffffffffff021916908373ffffffffffffffffffffffffffffffffffffffff16021790555088600c819055508860016000600d60009054906101000a900473ffffffffffffffffffffffffffffffffffffffff1673ffffffffffffffffffffffffffffffffffffffff1673ffffffffffffffffffffffffffffffffffffffff168152602001908152602001600020819055508660099080519060200190620001e492919062000214565b5085600a9080519060200190620001fd92919062000214565b5042600b81905550505050505050505050620002c3565b828054600181600116156101000203166002900490600052602060002090601f016020900481019282601f106200025757805160ff191683800117855562000288565b8280016001018555821562000288579182015b82811115620002875782518255916020019190600101906200026a565b5b5090506200029791906200029b565b5090565b620002c091905b80821115620002bc576000816000905550600101620002a2565b5090565b90565b6119cb80620002d36000396000f300606060405260043610610107576000357c0100000000000000000000000000000000000000000000000000000000900463ffffffff168063018a25e81461010c57806305b344101461013557806306fdde031461015e578063095ea7b3146101ec57806318160ddd1461024657806323b872dd1461026f578063313ce567146102e85780634b750334146103175780634fa9e09714610340578063661884631461036957806370a08231146103c35780638da5cb5b14610410578063954746fa1461046557806395d89b411461048e578063a6f2ae3a1461051c578063a9059cbb1461053a578063d73dd62314610594578063dd62ed3e146105ee578063fbbf93a01461065a575b600080fd5b341561011757600080fd5b61011f6107b8565b6040518082815260200191505060405180910390f35b341561014057600080fd5b61014861083c565b6040518082815260200191505060405180910390f35b341561016957600080fd5b610171610842565b6040518080602001828103825283818151815260200191508051906020019080838360005b838110156101b1578082015181840152602081019050610196565b50505050905090810190601f1680156101de5780820380516001836020036101000a031916815260200191505b509250505060405180910390f35b34156101f757600080fd5b61022c600480803573ffffffffffffffffffffffffffffffffffffffff169060200190919080359060200190919050506108e0565b604051808215151515815260200191505060405180910390f35b341561025157600080fd5b6102596109d2565b6040518082815260200191505060405180910390f35b341561027a57600080fd5b6102ce600480803573ffffffffffffffffffffffffffffffffffffffff1690602001909190803573ffffffffffffffffffffffffffffffffffffffff169060200190919080359060200190919050506109d8565b604051808215151515815260200191505060405180910390f35b34156102f357600080fd5b6102fb610d0b565b604051808260ff1660ff16815260200191505060405180910390f35b341561032257600080fd5b61032a610d10565b6040518082815260200191505060405180910390f35b341561034b57600080fd5b610353610d16565b6040518082815260200191505060405180910390f35b341561037457600080fd5b6103a9600480803573ffffffffffffffffffffffffffffffffffffffff16906020019091908035906020019091905050610d1c565b604051808215151515815260200191505060405180910390f35b34156103ce57600080fd5b6103fa600480803573ffffffffffffffffffffffffffffffffffffffff16906020019091905050610fad565b6040518082815260200191505060405180910390f35b341561041b57600080fd5b610423610ff6565b604051808273ffffffffffffffffffffffffffffffffffffffff1673ffffffffffffffffffffffffffffffffffffffff16815260200191505060405180910390f35b341561047057600080fd5b61047861101c565b6040518082815260200191505060405180910390f35b341561049957600080fd5b6104a1611022565b6040518080602001828103825283818151815260200191508051906020019080838360005b838110156104e15780820151818401526020810190506104c6565b50505050905090810190601f16801561050e5780820380516001836020036101000a031916815260200191505b509250505060405180910390f35b6105246110c0565b6040518082815260200191505060405180910390f35b341561054557600080fd5b61057a600480803573ffffffffffffffffffffffffffffffffffffffff16906020019091908035906020019091905050611303565b604051808215151515815260200191505060405180910390f35b341561059f57600080fd5b6105d4600480803573ffffffffffffffffffffffffffffffffffffffff16906020019091908035906020019091905050611520565b604051808215151515815260200191505060405180910390f35b34156105f957600080fd5b610644600480803573ffffffffffffffffffffffffffffffffffffffff1690602001909190803573ffffffffffffffffffffffffffffffffffffffff1690602001909190505061171c565b6040518082815260200191505060405180910390f35b341561066557600080fd5b61066d6117a3565b604051808b73ffffffffffffffffffffffffffffffffffffffff1673ffffffffffffffffffffffffffffffffffffffff16815260200180602001806020018a815260200189815260200188815260200187815260200186815260200185815260200184815260200183810383528c818151815260200191508051906020019080838360005b8381101561070d5780820151818401526020810190506106f2565b50505050905090810190601f16801561073a5780820380516001836020036101000a031916815260200191505b5083810382528b818151815260200191508051906020019080838360005b83811015610773578082015181840152602081019050610758565b50505050905090810190601f1680156107a05780820380516001836020036101000a031916815260200191505b509c5050505050505050505050505060405180910390f35b60008060006006544203905060045460035410156107f1576008548160035460045403028115156107e557fe5b04600354019150610825565b600454600354111561081e5760085481600454600354030281151561081257fe5b04600354039150610824565b60035491505b5b60008211151561083457600191505b819250505090565b600b5481565b600a8054600181600116156101000203166002900480601f0160208091040260200160405190810160405280929190818152602001828054600181600116156101000203166002900480156108d85780601f106108ad576101008083540402835291602001916108d8565b820191906000526020600020905b8154815290600101906020018083116108bb57829003601f168201915b505050505081565b600081600260003373ffffffffffffffffffffffffffffffffffffffff1673ffffffffffffffffffffffffffffffffffffffff16815260200190815260200160002060008573ffffffffffffffffffffffffffffffffffffffff1673ffffffffffffffffffffffffffffffffffffffff168152602001908152602001600020819055508273ffffffffffffffffffffffffffffffffffffffff163373ffffffffffffffffffffffffffffffffffffffff167f8c5be1e5ebec7d5bd14f71427d1e84f3dd0314c0f7b2291e5b200ac8c7c3b925846040518082815260200191505060405180910390a36001905092915050565b60005481565b600080600073ffffffffffffffffffffffffffffffffffffffff168473ffffffffffffffffffffffffffffffffffffffff1614151515610a1757600080fd5b600260008673ffffffffffffffffffffffffffffffffffffffff1673ffffffffffffffffffffffffffffffffffffffff16815260200190815260200160002060003373ffffffffffffffffffffffffffffffffffffffff1673ffffffffffffffffffffffffffffffffffffffff168152602001908152602001600020549050610ae883600160008873ffffffffffffffffffffffffffffffffffffffff1673ffffffffffffffffffffffffffffffffffffffff1681526020019081526020016000205461195490919063ffffffff16565b600160008773ffffffffffffffffffffffffffffffffffffffff1673ffffffffffffffffffffffffffffffffffffffff16815260200190815260200160002081905550610b7d83600160008773ffffffffffffffffffffffffffffffffffffffff1673ffffffffffffffffffffffffffffffffffffffff1681526020019081526020016000205461196d90919063ffffffff16565b600160008673ffffffffffffffffffffffffffffffffffffffff1673ffffffffffffffffffffffffffffffffffffffff16815260200190815260200160002081905550610bd3838261195490919063ffffffff16565b600260008773ffffffffffffffffffffffffffffffffffffffff1673ffffffffffffffffffffffffffffffffffffffff16815260200190815260200160002060003373ffffffffffffffffffffffffffffffffffffffff1673ffffffffffffffffffffffffffffffffffffffff168152602001908152602001600020819055508373ffffffffffffffffffffffffffffffffffffffff168573ffffffffffffffffffffffffffffffffffffffff167f9ed053bb818ff08b8353cd46f78db1f0799f31c9e4458fdb425c10eccd2efc4485600160008a73ffffffffffffffffffffffffffffffffffffffff1673ffffffffffffffffffffffffffffffffffffffff16815260200190815260200160002054604051808381526020018281526020019250505060405180910390a360019150509392505050565b601281565b60055481565b60045481565b600080600260003373ffffffffffffffffffffffffffffffffffffffff1673ffffffffffffffffffffffffffffffffffffffff16815260200190815260200160002060008573ffffffffffffffffffffffffffffffffffffffff1673ffffffffffffffffffffffffffffffffffffffff16815260200190815260200160002054905080831115610e2d576000600260003373ffffffffffffffffffffffffffffffffffffffff1673ffffffffffffffffffffffffffffffffffffffff16815260200190815260200160002060008673ffffffffffffffffffffffffffffffffffffffff1673ffffffffffffffffffffffffffffffffffffffff16815260200190815260200160002081905550610ec1565b610e40838261195490919063ffffffff16565b600260003373ffffffffffffffffffffffffffffffffffffffff1673ffffffffffffffffffffffffffffffffffffffff16815260200190815260200160002060008673ffffffffffffffffffffffffffffffffffffffff1673ffffffffffffffffffffffffffffffffffffffff168152602001908152602001600020819055505b8373ffffffffffffffffffffffffffffffffffffffff163373ffffffffffffffffffffffffffffffffffffffff167f8c5be1e5ebec7d5bd14f71427d1e84f3dd0314c0f7b2291e5b200ac8c7c3b925600260003373ffffffffffffffffffffffffffffffffffffffff1673ffffffffffffffffffffffffffffffffffffffff16815260200190815260200160002060008873ffffffffffffffffffffffffffffffffffffffff1673ffffffffffffffffffffffffffffffffffffffff168152602001908152602001600020546040518082815260200191505060405180910390a3600191505092915050565b6000600160008373ffffffffffffffffffffffffffffffffffffffff1673ffffffffffffffffffffffffffffffffffffffff168152602001908152602001600020549050919050565b600d60009054906101000a900473ffffffffffffffffffffffffffffffffffffffff1681565b60035481565b60098054600181600116156101000203166002900480601f0160208091040260200160405190810160405280929190818152602001828054600181600116156101000203166002900480156110b85780601f1061108d576101008083540402835291602001916110b8565b820191906000526020600020905b81548152906001019060200180831161109b57829003601f168201915b505050505081565b60006110ca6107b8565b348115156110d457fe5b0490508060016000600d60009054906101000a900473ffffffffffffffffffffffffffffffffffffffff1673ffffffffffffffffffffffffffffffffffffffff1673ffffffffffffffffffffffffffffffffffffffff168152602001908152602001600020541080611147575060008111155b1561115157600080fd5b80600160003373ffffffffffffffffffffffffffffffffffffffff1673ffffffffffffffffffffffffffffffffffffffff168152602001908152602001600020600082825401925050819055508060016000600d60009054906101000a900473ffffffffffffffffffffffffffffffffffffffff1673ffffffffffffffffffffffffffffffffffffffff1673ffffffffffffffffffffffffffffffffffffffff168152602001908152602001600020600082825403925050819055503373ffffffffffffffffffffffffffffffffffffffff16600d60009054906101000a900473ffffffffffffffffffffffffffffffffffffffff1673ffffffffffffffffffffffffffffffffffffffff167f9ed053bb818ff08b8353cd46f78db1f0799f31c9e4458fdb425c10eccd2efc448360016000600d60009054906101000a900473ffffffffffffffffffffffffffffffffffffffff1673ffffffffffffffffffffffffffffffffffffffff1673ffffffffffffffffffffffffffffffffffffffff16815260200190815260200160002054604051808381526020018281526020019250505060405180910390a380905090565b60008073ffffffffffffffffffffffffffffffffffffffff168373ffffffffffffffffffffffffffffffffffffffff161415151561134057600080fd5b61139282600160003373ffffffffffffffffffffffffffffffffffffffff1673ffffffffffffffffffffffffffffffffffffffff1681526020019081526020016000205461195490919063ffffffff16565b600160003373ffffffffffffffffffffffffffffffffffffffff1673ffffffffffffffffffffffffffffffffffffffff1681526020019081526020016000208190555061142782600160008673ffffffffffffffffffffffffffffffffffffffff1673ffffffffffffffffffffffffffffffffffffffff1681526020019081526020016000205461196d90919063ffffffff16565b600160008573ffffffffffffffffffffffffffffffffffffffff1673ffffffffffffffffffffffffffffffffffffffff168152602001908152602001600020819055508273ffffffffffffffffffffffffffffffffffffffff163373ffffffffffffffffffffffffffffffffffffffff167f9ed053bb818ff08b8353cd46f78db1f0799f31c9e4458fdb425c10eccd2efc4484600160008873ffffffffffffffffffffffffffffffffffffffff1673ffffffffffffffffffffffffffffffffffffffff16815260200190815260200160002054604051808381526020018281526020019250505060405180910390a36001905092915050565b60006115b182600260003373ffffffffffffffffffffffffffffffffffffffff1673ffffffffffffffffffffffffffffffffffffffff16815260200190815260200160002060008673ffffffffffffffffffffffffffffffffffffffff1673ffffffffffffffffffffffffffffffffffffffff1681526020019081526020016000205461196d90919063ffffffff16565b600260003373ffffffffffffffffffffffffffffffffffffffff1673ffffffffffffffffffffffffffffffffffffffff16815260200190815260200160002060008573ffffffffffffffffffffffffffffffffffffffff1673ffffffffffffffffffffffffffffffffffffffff168152602001908152602001600020819055508273ffffffffffffffffffffffffffffffffffffffff163373ffffffffffffffffffffffffffffffffffffffff167f8c5be1e5ebec7d5bd14f71427d1e84f3dd0314c0f7b2291e5b200ac8c7c3b925600260003373ffffffffffffffffffffffffffffffffffffffff1673ffffffffffffffffffffffffffffffffffffffff16815260200190815260200160002060008773ffffffffffffffffffffffffffffffffffffffff1673ffffffffffffffffffffffffffffffffffffffff168152602001908152602001600020546040518082815260200191505060405180910390a36001905092915050565b6000600260008473ffffffffffffffffffffffffffffffffffffffff1673ffffffffffffffffffffffffffffffffffffffff16815260200190815260200160002060008373ffffffffffffffffffffffffffffffffffffffff1673ffffffffffffffffffffffffffffffffffffffff16815260200190815260200160002054905092915050565b60006117ad61198b565b6117b561198b565b6000806000806000806000600d60009054906101000a900473ffffffffffffffffffffffffffffffffffffffff16600a6009600c54600b54600354600454600554600654600754888054600181600116156101000203166002900480601f0160208091040260200160405190810160405280929190818152602001828054600181600116156101000203166002900480156118915780601f1061186657610100808354040283529160200191611891565b820191906000526020600020905b81548152906001019060200180831161187457829003601f168201915b50505050509850878054600181600116156101000203166002900480601f01602080910402602001604051908101604052809291908181526020018280546001816001161561010002031660029004801561192d5780601f106119025761010080835404028352916020019161192d565b820191906000526020600020905b81548152906001019060200180831161191057829003601f168201915b50505050509750995099509950995099509950995099509950995090919293949596979899565b600082821115151561196257fe5b818303905092915050565b600080828401905083811015151561198157fe5b8091505092915050565b6020604051908101604052806000815250905600a165627a7a72305820a52c9d7d249e3ceda9da187fe7085c74ca6fa7689b292cbbbc0d608666e35fed0029a165627a7a72305820ab82e4471e67d3e0aac5de88c6168f714ff5ad0bcd59979fd84717853ff44d3f0029",
  "source": "pragma solidity ^0.4.8;\r\n// import \"AuctionToken.sol.sol\";\r\n\r\n//Contract Factory\r\nimport './AuctionToken.sol';\r\ncontract GenToFactory {\r\n\r\n    /* Define variable owner of the type address*/\r\n    address owner;\r\n    /*Mapping to store every ICO to from a specific owner*/\r\n    mapping(address => address[]) userICOs;\r\n\r\n    event ContractCreated(address owner, address contractAddress);\r\n\r\n    /* this function is executed at initialization and sets the owner of the contract */\r\n    function GenToFactory() {\r\n        owner = msg.sender;\r\n    }\r\n\r\n    function createContract(uint256 totalSupply,\r\n                            string _symbol,\r\n                            string _name,\r\n                            uint256 _buyPriceStart,\r\n                            uint256 _buyPriceEnd,\r\n                            uint256 _sellPrice,\r\n                            uint256 _saleStart,\r\n                            uint256 _saleEnd) returns (address contractAddress){\r\n        address _owner = msg.sender;\r\n\r\n        AuctionToken auctionToken = new AuctionToken(totalSupply,\r\n                                                     _owner,\r\n                                                     _symbol,\r\n                                                     _name,\r\n                                                     _buyPriceStart,\r\n                                                     _buyPriceEnd,\r\n                                                     _sellPrice,\r\n                                                     _saleStart,\r\n                                                     _saleEnd);\r\n        address auctionAddress = address(auctionToken);\r\n        userICOs[_owner].push(auctionAddress);\r\n        ContractCreated(_owner, auctionAddress);\r\n        return auctionAddress;\r\n    }\r\n\r\n    function getICOsFromOwner(address _owner) constant public returns(address[]){\r\n        return userICOs[_owner];\r\n    }\r\n\r\n    /* Function to recover the funds on the contract */\r\n    function kill() {\r\n        if (msg.sender == owner) selfdestruct(owner);\r\n    }\r\n}\r\n",
  "sourcePath": "C:\\Users\\Theo\\Desktop\\Projects\\GenTo_2\\GenTo2\\solidity\\contracts\\GenToFactory.sol",
  "compiler": {
    "name": "solc",
    "version": "0.4.18+commit.9cf6e910.Emscripten.clang"
  },
  "schemaVersion": "1.0.1",
  "updatedAt": "2017-12-09T08:29:20.778Z"
}